:020000040800F2
:10000000004000204D0A010845FB00084BFB00089A
:1000100000000000000000000000000000000000E0
:1000200000000000000000000000000051FB00087C
:1000300000000000000000005BFB000865FB0008FA
:100040009D0A0108000000009D0A01089D0A0108A0
:100050009D0A01089D0A010875FB00089D0A010818
:10006000000000009D0A01089D0A01089D0A010880
:100070009D0A01089D0A01089D0A01080000000070
:100080009D0A010891FB0008C9FB00089D0A0108B0
:100090009D0A01089D0A01089D0A01089D0A0108A0
:1000A0009D0A01089D0A01089D0A010809FC000833
:1000B0009D0A0108B9FC0008000000009D0A010823
:1000C00010B5064C2378002B07D1054B002B02D02E
:1000D000044800E000BF0123237010BDF800002099
:1000E0000000000088570108044B10B5002B03D016
:1000F0000349044800E000BF10BDC04600000000F6
:10010000FC000020885701080023C25C0133002A4C
:10011000FBD1581E70470000002243088B4274D365
:1001200003098B425FD3030A8B4244D3030B8B42F8
:1001300028D3030C8B420DD3FF22090212BA030C01
:100140008B4202D31212090265D0030B8B4219D3E2
:1001500000E0090AC30B8B4201D3CB03C01A524102
:10016000830B8B4201D38B03C01A5241430B8B424A
:1001700001D34B03C01A5241030B8B4201D30B0333
:10018000C01A5241C30A8B4201D3CB02C01A52415A
:10019000830A8B4201D38B02C01A5241430A8B421D
:1001A00001D34B02C01A5241030A8B4201D30B0206
:1001B000C01A5241CDD2C3098B4201D3CB01C01A20
:1001C000524183098B4201D38B01C01A524143092A
:1001D0008B4201D34B01C01A524103098B4201D318
:1001E0000B01C01A5241C3088B4201D3CB00C01A85
:1001F000524183088B4201D38B00C01A52414308FD
:100200008B4201D34B00C01A5241411A00D2014621
:10021000524110467047FFE701B5002000F0F0F8AA
:1002200002BDC0460029F7D076E7704703460B436E
:100230007FD4002243088B4274D303098B425FD3DF
:10024000030A8B4244D3030B8B4228D3030C8B420B
:100250000DD3FF22090212BA030C8B4202D31212F1
:10026000090265D0030B8B4219D300E0090AC30BC6
:100270008B4201D3CB03C01A5241830B8B4201D373
:100280008B03C01A5241430B8B4201D34B03C01A5C
:100290005241030B8B4201D30B03C01A5241C30AD4
:1002A0008B4201D3CB02C01A5241830A8B4201D345
:1002B0008B02C01A5241430A8B4201D34B02C01A2F
:1002C0005241030A8B4201D30B02C01A5241CDD2D4
:1002D000C3098B4201D3CB01C01A524183098B421F
:1002E00001D38B01C01A524143098B4201D34B0108
:1002F000C01A524103098B4201D30B01C01A52416B
:10030000C3088B4201D3CB00C01A524183088B42F1
:1003100001D38B00C01A524143088B4201D34B00DA
:10032000C01A5241411A00D201465241104670474C
:100330005DE0CA0F00D04942031000D34042534051
:1003400000229C4603098B422DD3030A8B4212D311
:10035000FC22890112BA030A8B420CD38901921143
:100360008B4208D3890192118B4204D389013AD080
:10037000921100E08909C3098B4201D3CB01C01A55
:10038000524183098B4201D38B01C01A5241430968
:100390008B4201D34B01C01A524103098B4201D356
:1003A0000B01C01A5241C3088B4201D3CB00C01AC3
:1003B000524183088B4201D38B00C01A5241D9D2DB
:1003C00043088B4201D34B00C01A5241411A00D25C
:1003D0000146634652415B10104601D34042002B58
:1003E00000D54942704763465B1000D3404201B5D7
:1003F000002000F005F802BD0029F8D016E770478C
:100400007047C04670B500220C4B04000D0001F08F
:1004100093FC002804D12000290001F0E9FB70BD05
:10042000064B00222000290001F09AF801F0E0FBC1
:1004300080231B069C466044F1E7C0460000E04173
:10044000F0B54F464646D6460C000903C0B5490AEA
:10045000470F5E0039431F03DB0F9C4665007B0A94
:10046000570F1F436D0DE40F760DA146C000B8462F
:10047000D200AB1B64457BD0002B5FDD002E00D08B
:10048000A4E03E00164300D112E15E1E002E00D013
:100490009EE1871A4346B84280410125C91A40426D
:1004A000091A0B0200D431E149024E0A002E00D194
:1004B0006EE1300001F04AFC0300083B1F2B00DD19
:1004C00061E120223900D21A9E40D1409F400E4364
:1004D0009D4200DD51E15D1B6B1C1F2B00DD7CE1AB
:1004E0002021C91A3D0030008F408840DD40791E30
:1004F0008F41310007222843D940002507433A4065
:10050000002A09D00F233B40042B05D03B1DBB42E2
:10051000BF417F42C9191F000B0200D426E26A1CAA
:10052000C64B55056D0D9A4200D106E1C44AFF083D
:100530000A40530752023B43120B8EE0002B00D0BF
:10054000B8E06B1C5B055B0D012B00DC30E1871A0A
:100550004346B842B641CB1A76429E1B330200D5C1
:100560004CE13B003343A1D100220024002570E080
:10057000002B00DCE5E0002E00D183E0AF4EB54259
:1005800060D0802636043743B846382B00DC3EE185
:10059000434613431F007A1E97413F18874280410C
:1005A000404209180B0200D4B0E0A44B01359D4233
:1005B00000D1C3E0A24A7B080A4001210F401F433B
:1005C0005108D30707221F433A4099E79B4EB54293
:1005D00038D0802636043743B846382B00DDDCE0BF
:1005E0001F2B00DC30E11E004746203EF740BC4692
:1005F000202B04D04026F31A46469E403243170073
:1006000063467A1E97411F43CCE0002B00D104E2E1
:100610004346134300D159E14B07C00818438023D8
:10062000C9081B03194208D04546ED081D4204D1F4
:100630004346D008590708432900420FC9007F4D9F
:100640001143C0004B07CA087C49C00803438D42D0
:1006500068D012036D05120B6D0D002112031800F6
:10066000130B0A0D12051A43764B2D0513402B432D
:100670005B00E4075B08234319001CBC90469946C5
:10068000A246F0BD3E00164312D05E1E002E00D0E2
:1006900000E1871887428041414440420918012502
:1006A0000B0233D5022585E764463300414610002E
:1006B0001D00C7E7002D00D0DAE00C000443F3D0A2
:1006C0005C1C00D19FE15D4CA64200D12FE1DB43D1
:1006D000382B00DD66E11F2B00DD83E120240500BF
:1006E000E41A0F00DD40D940A0404346A7405B1A02
:1006F000441EA04198462F433843171ABA429241EC
:1007000043465242991A64463500CAE607223A40E7
:10071000002A00D0F6E64B07CA084849FF083B43C9
:100720008D4296D11900114300D19EE18021090329
:100730000A431203120B414D8FE7150000220023DC
:100740008BE7002B00D0C7E06B1C5F057F0D012FEE
:1007500000DCF1E0394DAB4200D1B9E085180A0068
:10076000854289414244494251180722CF076D080A
:100770002F4349083A401D00C2E607223049ED1ACE
:1007800031403A40BCE63E002838864000279FE6CC
:10079000380001F0DBFA20308EE6434613431F0099
:1007A0007A1E9741C71BB84280414042091A78E639
:1007B0000E003B0006431343002D61D1002E00D0F4
:1007C000F4E0002B00D11BE164463900100039E74A
:1007D0001A4FBB427AD03300FFE630001F3DE8409D
:1007E000202B03D04021CB1A9E4037437B1E9F41D4
:1007F000072207433A400021002589E7171A43469C
:10080000BA42B641591A76428E1B64464EE61F2BF9
:1008100000DDADE020264746F61AB740B94617007E
:10082000B246DF404E463E4337005646B240561E63
:10083000B24117434246DA408918AEE6FF0700008E
:10084000FFFF7FFFFFFF0F8020264746F61AB740C5
:10085000B9461700B246DF404E463E433700564683
:10086000B240561EB24117434246DA40891A99E710
:100870007F4CA6425BD0802424045B42214327E7BF
:10088000002E0CD1002B00D1CBE0644639001000C3
:10089000774DD7E6764FBB4218D0330075E6002B74
:1008A00014D04B07C00818438023C9081B03194202
:1008B00007D0FC081C4204D17907D0080843E14660
:1008C00021004C46420FC9001143C000684DB9E6F3
:1008D0001D0000220023C0E6002D5BD10D00054362
:1008E00000D1E2E65D1C00D1B0E0614DAE421FD008
:1008F000DB43382B71DC1F2B00DD96E020250F0039
:10090000ED1AAF40B9460700AA46DF404D463D43C9
:100910002F005546A840D940451EA84188440743AA
:10092000BF18974292415142414435003AE664462D
:1009300035004146100085E60B000343002D00D032
:1009400063E6002BF5D04346134300D17AE68718BF
:100950008742804107224144404209183A400B0235
:1009600000D4D5E6434B01351940C9E5380069E6A6
:100970001E004746203EF740BC46202B04D04026B0
:10098000F31A46469E403243170063467A1E97414B
:100990001F4302E6364DAE42CAD080252D045B428D
:1009A0002943A6E70843411E8841A6E6002B00D153
:1009B00048E6871A4346B842B641CB1A76429E1B98
:1009C00033024BD5171A4346BA429241591A524242
:1009D000891A072264463A4092E501430F00791EC6
:1009E0008F419DE71C000F00203CE740202B03D0E7
:1009F0004024E31A99400843411E884138437CE66D
:100A00000022002425E6171A4346BA429241591A99
:100A10005242891A6446350043E541461000144DA0
:100A200010E680220024120380E61D000F00203D06
:100A3000EF40BC46202B03D04025EB1A99400843D9
:100A400007006346781E87411F4369E7871897426E
:100A50009B4141445B42C9183500A3E53B00334349
:100A6000CED0072231003A4052E600231A00F4E5C6
:100A7000FF070000FFFF7FFFF0B55746DE464E46FA
:100A80004546E0B5834607000E03480085B0924610
:100A90001C00360B400DCD0F002800D19DE0954B7A
:100AA000984239D08023F6001B041E43924A7B0FE4
:100AB0003343994694460300634400930023002681
:100AC000FF00029323031B0B98466300E40F52467A
:100AD0005B0D019400D1B3E086498B4200D19EE0CA
:100AE0004246D100802212040A435146490F114365
:100AF0008B46814952468C4600996344CB1A0021AB
:100B0000D20000932B0063409A460F2E00D905E1D6
:100B10007A4BB6009B599F465B463343994600D0BB
:100B2000B8E002230826002700900293CAE7CB46CC
:100B30003A0002990195019B9A46022927D0032980
:100B400000D180E2012944D06D49009B8C4663446A
:100B50001C00002C38DD530700D013E2D2085B469E
:100B6000DB0109D55946674B19408B468021C900E6
:100B70008C46009B63441C00634B9C4207DC5B4635
:100B800064055F075B0217431B0B620D02E0002345
:100B90000027584A00211B031C0B0B0D1B05234388
:100BA00014055A4A380013401C4353466400DB07BF
:100BB00064081C43210005B03CBC90469946A246FF
:100BC000AB46F0BD0122524201231B1B382B00DC37
:100BD000ADE1002200230027DCE75B463343994662
:100BE0005ED0002E00D18AE1300001F0AFF80300A2
:100BF0000B3B1C2B00DD7BE11D22D31A5A46010062
:100C0000DA4008398E4013005F46334399468F40DF
:100C10003F4B00261B1A00930023029352E74146E4
:100C200053460B433B499B468C46009B63440093D1
:100C30005B46002B3BD1022300221E43022161E7C9
:100C4000434613439B4637D04346002B00D162E115
:100C5000404601F07BF803000B3B1C2B00DD53E109
:100C600002004146083A914088461D21CB1A514660
:100C7000D9400B0041460B439B46534693401A0014
:100C8000009B25499C46604403008C4663440093C6
:100C9000002137E70323B14600900C26029311E7A9
:100CA0000023009301330426002702930AE703235D
:100CB000C3461E43032125E701331E4300220121C1
:100CC00020E700239A46802300271B03094A61E797
:100CD000802349461B03194200D1E2E059461942DC
:100CE00000D0DEE00B431B0317001B0BA246014A9A
:100CF00050E7C046FF07000001FCFFFF54620108F7
:100D0000FF030000FFFFFFFEFE070000FFFF0F8054
:100D10000DFCFFFF01F8FFFFF3030000D94500D9E8
:100D2000CBE000D1C6E03C0048460027009B013BD9
:100D300000935B46160E1B021E43130298463304B3
:100D40001B0C9946310C0191FFF76CFA4A4642435D
:100D50000B04210C050019438A4207D98919013D6A
:100D60008E4203D88A4201D9851E8919881A0199B1
:100D7000FFF758FA09048C464A4621046446424368
:100D8000090C030021438A4204D98919013B8E4290
:100D900000D8F1E02D041D43AB464346891A424674
:100DA000280C12041D0C5B46140C22001B041B0CA7
:100DB0005A4303946B434443029568431B19150C33
:100DC000EB189C4203D980246402A44660441C0CA6
:100DD00015041B042D0C20185D19814277D373D0A4
:100DE0000C1AA24A7D1BAF42BF419446009B7F4232
:100DF0006344E01B1C00864200D1DBE00199FFF751
:100E000011FA4A4642430B04290C070019438A424F
:100E100007D98919013F8E4203D88A4201D9871E1A
:100E20008919881A0199FFF7FDF909044A4689468C
:100E300029044D464243090C030029438A4207D93D
:100E40008919013B8E4203D88A4201D9831E891930
:100E50003F04891A3A00039F1A43380013041B0CFD
:100E6000584381460298150C6F4343434543484617
:100E7000000C8446DB1963449F4203D98020400262
:100E80008446654448461F0C00041B04000C7D1971
:100E90001818A94200D284E000D17FE001231A4350
:100EA00057E680234A461B0313431B031B0BAA462A
:100EB0006F4A6FE6BA4200D935E74B46DC0758085F
:100EC0007B081C43FF0734E70024AF4289D2474424
:100ED0004745A4415B466442A4196418013BA642FD
:100EE0001ED2A0426DD800D1B6E0241A9B4678E706
:100EF00003005A46283B9A400027914688E6584608
:100F000000F024FF203072E603005246283B9A404E
:100F100093460022B4E6504600F018FF20309AE6CF
:100F2000A642E2D1B845DCD9341A9B4659E71F2BBB
:100F300065DC504C0099A4465C46614408008C4036
:100F400011008240D940501E82410C4314435A463E
:100F5000DA401300620709D00F222240042A05D08C
:100F60002200141D9442894149425B181A0262D53D
:100F70000122002300270DE68A4200D80AE7831EDB
:100F8000891907E70F231340042B00D1E6E5171D4D
:100F90009742924153429B44FA08E0E5002800D171
:100FA000D7E57118531EB14227D3A94215D358D0A3
:100FB0001A0073E7002B00DC04E6012300229B44A7
:100FC000CDE502234744474589415B429C4649425F
:100FD00089190C19E344241A03E743465F00474587
:100FE0009B41B8465B429E19023A8919A94200D03A
:100FF00054E7404500D051E7ABE51A00F6E71F2162
:101000005F4649420C1BE740202B07D01A49009B42
:101010008C46634418005B4683401A43501E82414D
:101020003A4307270023174009D00F21002311401E
:101030001400042995D122005F075B021B0BD20824
:1010400017430022A6E5802359461B030B431B03CD
:1010500017001B0B064A9DE5BD42B2D89B460024F3
:10106000BFE68045B9D31A00C3E7C046FF030000BE
:10107000FF0700001E0400003E040000F0B55746C4
:10108000DE464E464546E0B5834606000F0348005F
:1010900087B092461D003F0B400DCC0F002800D1B9
:1010A0006FE0DE4B984238D08023FF001B041F43C3
:1010B000730F3B430193DA4B0027994600239B466D
:1010C000F60081442B0369001B0B52469846490DDC
:1010D000ED0F002900D185E0D04B994200D173E09B
:1010E0004346DA0080231B0413435246CC48520F78
:1010F00084461343524600206144D20089442100B3
:10110000694000918C46012149448A460F2F00D93D
:1011100090E0C449BF00CF59BF465B463B430193B3
:1011200000D06AE102230827002681469B46C9E7D2
:1011300032005846019B61460091022800D175E0BB
:10114000032800D1FEE1012800D02CE10023002774
:10115000002600253F032A0D3F0BB34812053A43F2
:1011600002401B051343009A5B00D1075B080B4349
:101170003000190007B03CBC90469946A246AB46E9
:10118000F0BD5B463B43019300D12FE1002F00D11E
:10119000A5E1380000F0DAFD03000B3B1C2B00DD5D
:1011A00096E11D22D31A5A460100DA405E460839FC
:1011B0008F4013008E403B4301939C4B00271B1A2A
:1011C000994600239B467DE7414653460B4393498E
:1011D0008C46E144002B00D01AE102220220174382
:1011E00000228CE7134300D10DE14346002B00D1D0
:1011F00081E1404600F0AAFD02000B3A1C2A00DD06
:1012000072E10100434608398B4098461D239A1A23
:101210005346D3401A004346134352468A40494638
:10122000081A824989468144002068E77B4B0027E1
:1012300000268EE7140C1204120C1100370C360431
:10124000350C794328008C462E0060436044834669
:1012500056432100300C8046584679434044029161
:10126000844506D98846802149028C46E04441469F
:1012700002913604010C360C00048B4681191E0CB9
:101280001B041B0C0391190079438C4628007543FD
:101290006544A8465843050C45447743A94203D901
:1012A000802149028C466744290C8C463900000491
:1012B000000C2D042D186144AB440591594604914E
:1012C00001990F043F0C080C3900514342439046EA
:1012D00002008C46090C8B4662437C4344445C44C8
:1012E000A04503D98021490288464244210C884602
:1012F00061460904090C8C46390059434343704345
:101300007E430F0CF6182404BE19644442448C46F4
:10131000B34203D980235B0298464044029B614656
:101320009846049B370443449B46AB45AD416B4212
:101330000D0405992D0C8C467F196744FD18A846AD
:101340005D462D19A542A44193466442A446C34478
:10135000DC448F42BF4198459B4193459241A4454F
:10136000A4415B427F421F43360C52426442BF1984
:101370002243BF18624638184302D20D0399134323
:101380006A020A43501E82416146ED0D2A434E0215
:101390003243D90100D4B3E0012650083240024361
:1013A000DE0732435B08224C5444002C62DD5107B7
:1013B00009D00F201040042805D0101D9042924102
:1013C00052429B180200D90104D580241948E40038
:1013D000034054441848844200DD27E75E075B025F
:1013E000D2081F0B630516435B0DB2E60023994636
:1013F0000133042700269B4664E6032301978146B8
:101400000C279B465EE6012201201743002276E668
:10141000032303201F43434671E6C046FF07000035
:1014200001FCFFFF94620108FFFF0F800DFCFFFF2E
:10143000FF030000FFFFFFFEFE07000000238027E0
:1014400000933F030026434B83E6019B3200A446F2
:10145000584670E6AC466EE6802701993F03394254
:101460002DD03B422BD11F433F033F0B009516006D
:10147000384B6EE601252D1B382D00DD66E61F2D4D
:1014800040DC35481C005044160082408440EE4049
:10149000501E824134431443EB40620709D00F22AF
:1014A0002240042A05D02200141D9442804140426B
:1014B0001B181A023ED501230027002649E6802783
:1014C000019B3F031F433F033F0B0094214B40E62A
:1014D00003005A46283B9A40002601926DE6584682
:1014E00000F034FC203057E603005246283B9A4077
:1014F0001300002293E6504600F028FC20307BE6E3
:10150000CA4650E71F201E004042041BE640202D23
:1015100003D0124C5444A3401A43501E824132431C
:1015200007260027164009D00F2000231040140082
:101530000428B9D122005E075B021F0BD2081643B4
:10154000002306E680273F031F433F033F0B16009F
:10155000004BFEE5FF0700001E0400003E040000F3
:10156000F8B557464E464546DE460C000903E0B541
:10157000490A460F5F0031431E03DB0F760A9B4684
:10158000530F3343C84E6500C000E40FD2006D0D09
:10159000A24681467F0D9C469046B74200D1B9E0F5
:1015A0005B46012673409B46EE1BA34500D183E0BA
:1015B000002E63DD002F00D0B1E06346134300D15D
:1015C00023E1731E002B00D0BAE1861A6346B042B5
:1015D00080410125C91A4042091A0B0200D447E193
:1015E00049024B0A98464346002B00D189E1404608
:1015F00000F0ACFB0300083B1F2B00DD7CE1202248
:101600003000D21A4146D040994002009E400A4321
:101610009D4200DD6AE15D1B6B1C1F2B00DD94E128
:10162000202110003500C91A8E40DA408840DD4084
:10163000711E8E41110007222843002506433240C7
:10164000002A09D00F233340042B05D0331DB342A9
:10165000B641764289191E000B0200D43DE26A1C95
:10166000914B55056D0D9A4200D119E18F4AF6084C
:101670000A40570752023743120B9BE0002E00D05E
:10168000C5E06E1C7605760D012E00DC48E167464C
:10169000861ACB1BB042BF417F42B8461F0043466B
:1016A000FF1A3B00B8461B0200D55FE137439AD1D1
:1016B00000220024002579E0002E00DCFAE0002F53
:1016C00000D18DE0784B9D4267D0802367461B0494
:1016D0001F43BC46382E00DC52E1634613435A1EBA
:1016E00093411E1886428041404209180B0200D4E3
:1016F000BEE06D4B01359D4200D1D2E06B4A7308CC
:101700000A4001210E401E435108D30707221E4301
:10171000324095E71E00164300D045E740E7624B94
:101720009D423AD0802367461B041F43BC46382E97
:1017300000DDEBE01F2E00DC3AE133006746203B82
:10174000DF403B00202E05D04027BF1B6646BE4031
:10175000324390464646721E96413343DAE0002BF0
:1017600000D114E26346134300D168E180234E07A1
:10177000C008C9081B030643194208D06046C008C8
:10178000184204D163460100D2085E071643F300F5
:101790009946C900720F444D11434B46DE08424B37
:1017A0004F073743CA089D4200D16EE012036D0512
:1017B000120B6D0D00211203130B0A0D12051A43B3
:1017C0003B4B2D0513402B435B00E4075B08234391
:1017D000380019003CBC90469946A246AB46F8BD7D
:1017E0006346134311D0731E002B00D007E1861807
:1017F0008642804161444042091801250B0237D5D9
:1018000002257BE73E00614691463500C5E75C4610
:10181000002D00D0E1E00B000343F3D0731C00D196
:10182000ACE1214B9F4200D13AE1F343382B00DD7C
:101830006FE11F2B00DD8CE120250E00ED1AAE407C
:10184000B0460600AA46DE40454635432E005546C2
:10185000D940A8406346451EA8415B1A9C463043C8
:10186000161AB242924163465242991A3D00B4E6BA
:1018700007223240002A00D0E4E60B4BF6084F075F
:101880003743CA089D4200D090E73B00134300D184
:10189000A6E180231B031A431203120B024D89E7B2
:1018A00015000022002785E7FF070000FFFF7FFFEC
:1018B000FFFF0F80002E00D0C7E06B1C5E05760D89
:1018C000012E00DCF0E0C84DAB4200D1B9E0851834
:1018D0000A00854289416244494251180722CE07D5
:1018E0006D082E43490832401D00A9E6BF49ED1A94
:1018F000114007223240A3E63200283882400026F9
:1019000086E6300000F022FA203073E66346134387
:101910005A1E9341C61AB04280414042091A5CE601
:101920000E00674606431743002D5ED1002E00D0FF
:10193000F3E0002F00D11EE15C46614691462CE7A2
:10194000A94FBE427BD01E00F1E610001F3DE840CB
:10195000202B03D04021CB1A9A401643731E9E4180
:101960000722064332400021002583E7161A63460A
:10197000B2428041591A40420B1A98465C4632E600
:101980001F2E00DDABE02027BB1B9A46634657465F
:10199000BB40994613004F46F3401F433B00574658
:1019A000BA40571EBA4113436246F240891898E67E
:1019B0002027BB1B9A4663465746BB4099461300F7
:1019C0004F46F3401F433B005746BA40571EBA41AB
:1019D00013436246F240891A9CE7834B9F425FD0D3
:1019E00080252D047342294320E7002E0CD1002FBF
:1019F00000D1D0E05C46614691467B4DCDE67A4F02
:101A0000BE421CD01E0065E6002F18D0C0084E074D
:101A100006438020C9080003014208D06346DC0861
:101A2000044204D12100DA46D2085E071643F300CF
:101A3000994601245346C900720F11431C406A4D58
:101A4000ABE61D0000220027B4E6002D59D10B00A3
:101A5000034300D1D6E6731C00D1B2E0624B9F4233
:101A60001ED0F343382B6FDC1F2B00DD97E02025C1
:101A70000E00ED1AAE40B0460600AA46DE404546CE
:101A800035432E005546A840D940451EA8418C44F8
:101A90000643B61896429241514261443D0025E604
:101AA0003D006146914678E60B000343002D00D0CF
:101AB00055E6002BF5D06346134300D16DE686183A
:101AC0008642804161444042091800220B0200D442
:101AD000D0E6464B01351940B2E5B1465DE633002C
:101AE0006746203BDF403B00202E05D04027BF1B30
:101AF0006646BE40324390464646721E9641334388
:101B0000EFE5394B9F42CBD080252D04734229430A
:101B1000A8E70843411E8841A2E6002F00D13CE619
:101B20006346861ACF1AB0429B415B42FB1A984625
:101B30001B024ED5161A6346B2429241591A5242BE
:101B4000891A5C4600227BE501430E00711E8E411E
:101B50009FE71D000E00203DEE40B046202B04D034
:101B60004025EB1A99400843814648464346411EAA
:101B70008841184374E60022002417E6161A6346CB
:101B8000B2429241591A5242891A3D0025E56146F6
:101B90009146154D01E680220024120379E61D00CE
:101BA0000E00203DEE40B046202B04D04025EB1A1D
:101BB0009940084381464E464346711E8E411E435E
:101BC00067E7861896429B4161445B42C9183D0015
:101BD0008CE547463743CED007224146324049E69E
:101BE00000273A00E6E5C046FF070000FFFF7FFF41
:101BF00030B5144D0A034B00120B5B0DC90F0024C6
:101C0000AB4211DD104CA34210DC8024640322435C
:101C10000E4CE41A1F2C0CDD0D48C31ADA401300D9
:101C20005C42002900D11C00200030BD094BCC18BB
:101C3000FAE7094DE040AC4663449A401300034381
:101C4000EEE7C046FE0300001D0400003304000060
:101C500013040000FFFFFF7FEDFBFFFF70B50028BE
:101C60002DD0C317C5185D40C40F280000F06EF8D2
:101C7000154B1B1A5B055B0D0A2815DD0B388540DB
:101C800000222D032D0B002110002D030A0D2D0B1A
:101C900012052A430D4D1B052A4013435B00E40740
:101CA0005B082343190070BD0200290015329140E2
:101CB0000A000B21081AC5402D032D0BE3E7002471
:101CC000002300250022DEE71E040000FFFF0F8036
:101CD0008446101C62468C46191C634600E0C046D0
:101CE0001FB500F0F1F8002801D40021C8421FBD43
:101CF00010B500F049F84042013010BD10B500F0B9
:101D0000E3F8002801DB002010BD012010BDC04613
:101D100010B500F0D9F8002801DD002010BD012029
:101D200010BDC04610B500F06BF8002801DC0020A3
:101D300010BD012010BDC04610B500F061F80028AC
:101D400001DA002010BD012010BDC0461C21012376
:101D50001B04984201D3000C10391B0A984201D38E
:101D6000000A08391B09984201D30009043902A26C
:101D7000105C40187047C0460403020201010101D3
:101D80000000000000000000F0B54F464646D64671
:101D90008446C0B58046194E18030F034D00000B52
:101DA0005C0082463F0B6D0DC90F9146640DDB0F41
:101DB0000120B5420AD0B44203D0A54201D1574513
:101DC0000CD01CBC90469946A246F0BD66463E43E8
:101DD000F7D1AC42F5D154461443F2D10120C845A5
:101DE000EFD1994207D0002DEBD163461F43380055
:101DF000471EB841E5E70020E3E7C046FF070000C3
:101E0000F0B54F464646D6464D00C0B50E03C90F45
:101E10008A462C491F035C008046360B6D0D9146A7
:101E20003F0B640DDB0F8D421ED08C4216D0002D6F
:101E30001ED130438446002C01D13A4323D0624660
:101E4000002A1AD09A4529D051460220013908406B
:101E500001381CBC90469946A246F0BD390011439A
:101E6000E5D002204042F4E73043FAD1AC420FD033
:101E7000002C0FD13A43E7D00CE00122013B934301
:101E800018000130E5E763460020002BE1D0DBE7D6
:101E90003A43E6D19A45D7D1A542D5DCA54205DB28
:101EA000BE42D1D808D00020BE42D2D25046012333
:101EB000013898430130CCE7C845C5D80020C84553
:101EC000F4D3C6E7FF070000F0B54F464646D646B6
:101ED0004D00C0B50E03C90F8A462E491F035C0092
:101EE0008046360B6D0D91463F0B640DDB0F8D4226
:101EF00018D08C4211D0002D18D130438446002CCC
:101F00001ED13A431CD163460020002B30D05146ED
:101F100002200139084001382AE039001143EAD093
:101F2000022025E03043FBD1AC4226D0002C26D144
:101F30003A4324D15146022001390840013817E0C4
:101F40006246002A0FD09A45E1D1A54205DBBE4288
:101F5000DDD819D00020BE420AD2504601230138F4
:101F60009843013004E00122013B93431800013003
:101F70001CBC90469946A246F0BD3A43D0D19A4542
:101F8000C5D1A542C3DCE0E7C845C0D80020C8459C
:101F9000E3D3EDE7FF07000080B500AF1E4B002242
:101FA0005A601D4B00229A601B4B9A681A4B802185
:101FB00009060A439A60C046174B9B68002BFBDB5F
:101FC000154B9A68144B01210A439A60124B002268
:101FD000DA60114B00221A610F4A0F4B52695A61A5
:101FE0000D4B00229A620C4B1B680122134005D056
:101FF000094B1A68084B01210A431A60074B1A68FB
:10200000064BC02109040A431A60054B00221A80BE
:10201000C046BD4680BDC04600240140082701409F
:102020009A04002080B500AF574B1B88072B00D9BE
:102030009AE09A00554BD3181B689F46544B802258
:1020400092009A62524B9A68514B04210A439A605B
:102050004D4B1B8801339AB24B4B1A8091E04C4B8D
:102060001B680422134000D182E0494B1B6C9AB2DA
:10207000484B1A80464B8022D2009A62444B9A68A1
:10208000434B04210A439A603F4B1B8801339AB2A9
:102090003D4B1A806CE03E4B1B680422134069D014
:1020A0003B4B1B6C9AB23B4B5A80394B802212013E
:1020B0009A62374B9A68364B04210A439A60324B36
:1020C0001B8801339AB2304B1A8053E0304B1B68A7
:1020D0000422134050D02E4B1B6C9AB22D4B9A8089
:1020E0002B4B802252019A62294B9A68284B04217B
:1020F0000A439A60244B1B8801339AB2224B1A8000
:102100003AE0234B1B680422134037D0204B1B6C52
:102110009AB2204BDA801E4B802292019A621C4BAD
:102120009A681B4B04210A439A60174B1B880133A2
:102130009AB2154B1A8021E0154B1B6804221340FC
:102140001ED0134B1B6C9AB2124B1A810E4B1B887C
:1021500001339AB20C4B1A8012E00B4B1B880133EF
:102160009AB2094B1A800CE0074B01221A8008E052
:10217000C04606E0C04604E0C04602E0C04600E0BB
:10218000C046C046BD4680BD9A040020D462010806
:1021900000240140D001002080B500AF154B012282
:1021A000DA8000F02DFA02F0D9FC02F09DFC01F07B
:1021B00007FF00F0CFFF00F02BF80F4B00221A7042
:1021C0000D4B1B781A000D4B9A5C0B4B5A700C4B45
:1021D000FF221A800B4B00221A800B4BFF221A8021
:1021E000044B72229B5ADAB2084B1A70C046BD46A5
:1021F00080BDC04610090020280D00203C6D01085C
:10220000980100208E05002086010020F6040020A1
:1022100080B500AF134B1B89032B04D0052B15D0C1
:10222000012B04D016E00F4B02221A8116E00D4B51
:10223000DB8A002B03D00C4B12229A7002E00A4B6F
:1022400000229A70074B07221A8107E0054B0422EF
:102250001A8103E0054B00221A71C046C046BD46F4
:1022600080BDC04610090020280D0020A4090020D0
:1022700080B500AF6D4B1B689AB26D4B1A806D4BE9
:102280001B689AB26C4B1A806C4B1B689AB26C4BF1
:102290001A806C4B1B689AB26B4B1A806B4B1B8974
:1022A000072B00D9B5E09A00694BD3181B689F46ED
:1022B000684B01221A71674B01221A70664B1B7919
:1022C000002B02D0644B01229A7001F079FE624B20
:1022D000262201219954604B2422002199545B4B02
:1022E0005B88002B2DD1594B1B8A1A000123134008
:1022F00015D1564B5B8A1A000423134007D0534B69
:102300005B8A102213439AB2504B5A8213E04F4B10
:102310005B8A082213439AB24C4B5A820BE04B4B18
:1023200070229B5A052B03D84C4B01221A7102E0F4
:102330004A4B06221A71454B03221A81032007F0EB
:1023400049F8424B1B88002B03D1404B5B88002B84
:1023500061D03E4B04221A81032007F03BF85AE07B
:102360003C4B04221A71012005F0EEFA374B05228E
:102370001A810121002001F055FD03001A00384B9D
:102380001A804FE0334B00221A71334B9B78002B9D
:1023900003D0314B1B79002B3FD1002005F0D4FA3C
:1023A00002F01EF92D4B00221A712B4B2622002120
:1023B0009954294B242200219954244B01221A813B
:1023C000032007F007F828E0204B0422DA801F4B97
:1023D0001B88002B03D11D4B5B88002B1FD01B4B90
:1023E00004221A811BE0194B1022DA80174B1B883C
:1023F000002B16D1154B5B88002B12D1002005F065
:10240000A3FA124B02221A810BE0104B0222DA804F
:1024100008E0C04606E0C04604E0C04602E0C04610
:1024200000E0C046C046BD4680BDC046CC0100208D
:102430007E070020B008002082010020480500200F
:10244000FA04002000090020C60100201009002025
:10245000F4620108A4090020280D00205405002082
:10246000AE08002080B500AF614B4A22AC21FF319D
:1024700099525F4B0F229A825D4B01221A815C4B6D
:1024800032229A835A4B0522DA84594B18221A8534
:10249000574B50225A85564B05221A87544B5F22C0
:1024A0009A85534B05225A87514B9622DA85504B19
:1024B0001E2252421A864E4B96225A864C4B1E22A0
:1024C00052429A864A4B96229200DA83484B3C222B
:1024D0001A84474B0522DA86454B02229A87444BE1
:1024E0000122DA87424B40223D219952404B422241
:1024F0000B2199523E4B00221A823D4B00225A82F8
:102500003B4B442214219952394B46223C2199528B
:10251000374B482205219952354B4C22A82199521C
:10252000334B4E2205219952314B502203219952AF
:102530002F4B5222052199522D4B542201219952A1
:102540002B4B00221A802A4B00225A83284B002250
:102550005A80274B00229A80254B00229A84244BD4
:102560000A225A84224B6C2228219952204B6E2237
:10257000002199521E4B0022DA821D4B00221A8341
:102580001B4B56221B499952194B58220A2199522A
:10259000174B5A22FB2149009952154B5C221549D1
:1025A0009952134B5E2201219952114B6422114919
:1025B00099520F4B6622092199520D4B602201213D
:1025C000494299520A4B6222042149429952084BCE
:1025D000682209499952064B6A2208499952044BCC
:1025E00072220021995200F049F8C046BD4680BDD4
:1025F00010090020080A0000F3F2FFFFF5F4FFFFC6
:1026000080B584B004AF1748322302937823019336
:10261000154B009302230022A0210FF0F5FA124B74
:102620004A229B5A114A93420BD1FFF71BFF104BD2
:102630001B78002B05D00F4A0F4B1100180007F034
:10264000C3F8094B4A229A5AAC23FF339A4206D068
:10265000054B4A22AC21FF31995200F00FF8C046D9
:10266000BD4680BDB433002010090020FFFF0000EC
:10267000F6040020A05701080034002080B500AF08
:10268000044B78221900002006F0D0FDC046BD465C
:1026900080BDC0461009002080B500AFC94B1B7833
:1026A0000133DAB2C74B1A70C74B1B79042B24D005
:1026B00005DC012B32D0022B00D1AFE009E0412B29
:1026C00000D160E2802B01D100F0CBFC402B00D187
:1026D000B2E1BE4B9B78002B07D0BD4807232022D8
:1026E000012105F059F800F0D4FCB948002320225C
:1026F000012105F051F800F0CCFCB64B1B880021FD
:10270000180001F08FFB03001A00B24B1A80B14B86
:102710001B88180001F074FA00F0BBFCAA4B1B7870
:10272000062B00D977E09A00AB4BD3181B689F4665
:10273000AA4B1B68002B08DA002002F03FF90023A7
:102740006022012105F028F866E0A44B1B68642B89
:1027500008DD642002F032F900236022012105F037
:102760001BF859E09D4B1B681BB2180002F026F9BC
:1027700000236022012105F00FF84DE0984B9B8B60
:102780001BB2180002F01AF900231022012105F0F3
:1027900003F841E0934800231022012104F0FCFFDC
:1027A0003AE0914B1B78002B06D090480023102272
:1027B000012104F0F1FF2FE08D48002310220121B8
:1027C00004F0EAFF28E08B4800231022012104F0E6
:1027D000E3FF834B5B8A1A000823134003D07A4B34
:1027E00001225A8018E0784B00225A8014E0824877
:1027F00000231022012104F0CFFF794B5B8A1A00DD
:102800001023134003D0704B01225A8004E06E4B1A
:1028100000225A8000E0C04600F03BFC6A4B1B7867
:10282000062B00D902E19A00744BD3181B689F460F
:102830006A4B1B68002B08DA002002F0BFF8002367
:102840006022012104F0A8FF17E0644B1B68642B91
:1028500008DD642002F0B2F800236022012104F0B8
:102860009BFF0AE05D4B1B681BB2180002F0A6F844
:1028700000236022012104F08FFF534B01221A71C3
:10288000D9E0574B9B8B1BB2180002F097F8072337
:102890001022012104F080FFCDE0534B5B78002B28
:1028A00006D0554807231022012104F075FFC2E02D
:1028B000504807231022012104F06EFFBBE04A4B71
:1028C0001B78002B06D0494807231022012104F071
:1028D00063FFB0E0464807231022012104F05CFFAB
:1028E000A9E03F4B1B8A1A000123134029D1364B24
:1028F0005B88002B12D13A4B5B8A1A0010231340DD
:1029000006D03F4800231022012104F045FF05E0D6
:102910003B4807231022012104F03EFF2A4B5B882D
:10292000012B00D084E0374807231022012104F056
:1029300033FF2B4B5B8A042293439AB2284B5A8273
:1029400076E0214B5B88002B06D12D480023102216
:10295000012104F021FF6BE02A480023102201210D
:1029600004F01AFF64E01E4B1B8A1A000123134077
:102970004AD1154B5B88002B12D1194B5B8A1A0088
:102980000823134006D01E4800231022012104F022
:1029900003FF05E01A4807231022012104F0FCFE82
:1029A000094B5B88012B45D11648072310220121D2
:1029B00004F0F2FE0A4B5B8A042213439AB2084BDE
:1029C0005A8237E0C4040020A4090020280D00200A
:1029D000BC570108AE08002014630108CC01002098
:1029E00010090020C057010854050020C4570108F1
:1029F000C8570108CC570108D057010830630108B7
:102A0000D4570108D8570108D44B5B88002B06D156
:102A1000D34800231022012104F0BEFE0AE0D14871
:102A200000231022012104F0B7FE03E0C04630E38A
:102A3000C0462EE3C0462CE3C84B5B78653B152BA4
:102A400000D99EE09A00C84BD3181B689F46C74820
:102A500000230022002104F09FFE93E0C4480023DD
:102A60000022002104F098FE8CE0C24800230022DE
:102A7000002104F091FE85E0BF48002300220021E0
:102A800004F08AFE7EE0BD4800230022002104F00D
:102A900083FE77E0BA4800230022002104F07CFE88
:102AA00070E0B84800230022002104F075FE69E0C0
:102AB000B54800230022002104F06EFE62E0B34816
:102AC00000230022002104F067FE5BE0B0480023F1
:102AD0000022002104F060FE54E0AE4800230022F2
:102AE000002104F059FE4DE0AB48002300220021F4
:102AF00004F052FE46E0A94800230022002104F021
:102B00004BFE3FE0A64800230022002104F044FED3
:102B100038E0A44800230022002104F03DFE31E00B
:102B2000A14800230022002104F036FE2AE09F483D
:102B300000230022002104F02FFE23E09C48002304
:102B40000022002104F028FE1CE09A480023002205
:102B5000002104F021FE15E0974800230022002107
:102B600004F01AFE0EE0954800230022002104F034
:102B700013FE07E0924800230022002104F00CFE1F
:102B800000E0C04685E2754B5B78653B152B00D9AC
:102B900057E29A008B4BD3181B689F466F4B5B889C
:102BA000002B09D16E4807230022002104F0F4FD18
:102BB0000021052004F096FE684B5B88012B00D0B5
:102BC00041E2684807230022002104F0E5FD0121CD
:102BD000052004F087FE36E2604B5B88002B09D1AC
:102BE0005F4807230022002104F0D6FD00210720C2
:102BF00004F078FE594B5B88012B00D025E2594840
:102C000007230022002104F0C7FD0121072004F062
:102C100069FE1AE2514B5B88002B09D1504807230B
:102C20000022002104F0B8FD0021062004F05AFE25
:102C30004A4B5B88012B00D009E24A480723002257
:102C4000002104F0A9FD0121062004F04BFEFEE165
:102C5000424B5B88002B09D1414807230022002109
:102C600004F09AFD0021042004F03CFE3B4B5B88FD
:102C7000012B00D0EDE13B4807230022002104F0A6
:102C80008BFD0121042004F02DFEE2E1334B5B8833
:102C9000002B0DD1324807230022002104F07CFDD7
:102CA0000021032004F01EFE0021022004F01AFE81
:102CB0002A4B5B88012B00D0CDE12A480723002254
:102CC000002104F069FD0121032004F00BFE012125
:102CD000022004F007FEBEE1204B5B88002B09D1E7
:102CE0001F4807230022002104F056FD0021012087
:102CF00004F0F8FD194B5B88012B00D0ADE11948B9
:102D000007230022002104F047FD0121012004F0E7
:102D1000E9FDA2E12C4B1B681BB2180001F04EFE2E
:102D200007230022002104F037FD99E1274B1B689F
:102D30001BB2180001F042FE07230022002104F01C
:102D40002BFD8DE1224B1B681BB2180001F036FEF3
:102D500007230022002104F01FFD81E1A4090020C7
:102D6000D4570108D85701084C630108DC57010803
:102D7000CC570108D0570108E0570108E457010873
:102D8000E8570108EC570108F0570108F45701080B
:102D9000F8570108FC5701080058010804580108B9
:102DA000085801080C580108105801081458010867
:102DB000185801081C580108205801082458010817
:102DC00028580108A4630108CC010020B0080020A5
:102DD00048050020B04B1B681BB2180001F0EEFD47
:102DE00007230022002104F0D7FC39E1AB4B1B681C
:102DF0001BB2180001F0E2FD07230022002104F0BD
:102E0000CBFC2DE1A64B1B781A000123134006D002
:102E1000A44807234022002104F0BEFC20E1A14881
:102E200007232022002104F0B7FC19E19C4B1B78FA
:102E30001A000123134006D09B48072300220221D9
:102E400004F0AAFC0CE1984807230022042104F0B6
:102E5000A3FC05E1924B1B78092B02D9904B002271
:102E60001A708F4B1B78092B00D9F8E09A008F4B12
:102E7000D3181B689F468E4800230022002104F0CF
:102E80008BFC3EE08B4800230022002104F084FCF0
:102E900037E0894800230022002104F07DFC30E067
:102EA000864800230022002104F076FC29E08448B3
:102EB00000230022002104F06FFC22E0814800235F
:102EC0000022002104F068FC1BE07F480023002260
:102ED000002104F061FC14E07C4800230022002162
:102EE00004F05AFC0DE07A4800230022002104F08F
:102EF00053FC06E0774800230022002104F04CFC3C
:102F0000C046ACE0744B1B781A000123134006D076
:102F1000724807230022002104F03EFCA0E0704824
:102F200007230022002104F037FC99E06A4B1B784C
:102F30001A000223134006D068480723002200210C
:102F400004F02AFC8CE0664807230022002104F0EC
:102F500023FC85E0604B1B781A000423134006D045
:102F60005E4807230022002104F016FC78E05C484C
:102F700007230022002104F00FFC71E0564B1B7860
:102F80001A000823134006D05448072300220021CA
:102F900004F002FC64E0524807230022002104F000
:102FA000FBFB5DE04C4B1B781A001023134006D04E
:102FB0004A4807230022002104F0EEFB50E0484875
:102FC00007230022002104F0E7FB49E0424B1B7875
:102FD0001A002023134006D0404807230022002176
:102FE00004F0DAFB3CE03E4807230022002104F015
:102FF000D3FB35E0384B1B781A004023134006D032
:10300000364807230022002104F0C6FB28E034489C
:1030100007230022002104F0BFFB21E02E4B1B7888
:103020005BB2002B06DA2D4807230022002104F0B2
:10303000B3FB15E02A4807230022002104F0ACFB73
:103040000EE0C04625E0C04623E0C04621E0C04671
:103050001FE0C0461DE0C0461BE0C04619E0C04668
:1030600017E0204800230022002104F095FB1E4BAE
:1030700040229A5A1D4B1A80094B1B78052B07D901
:103080001B4B40221A711A4B65225A7006F01EFB28
:10309000C046C046BD4680BD00090020E4010020B6
:1030A000C40400200058010804580108FC6301080A
:1030B0002C580108305801083458010838580108C4
:1030C0003C58010840580108445801084858010874
:1030D0004C58010850580108AA090020D857010887
:1030E000D4570108545801081009002098090020FD
:1030F000A409002080B500AF144B9B8A1A0001235D
:10310000134020D0114B1B89012B1DD10F4B9B88E5
:103110001A0080235B00134003D00D4B01221A716B
:1031200012E00B4B00221A71084B5B8A0822934372
:103130009AB2064B5A82054B5B8A102293439AB28D
:10314000024B5A8200E0C046BD4680BD10090020F7
:103150005405002080B500AF1D4B598B1D4B00223C
:10316000180000F097F81A4B598B1B4B01221800DE
:1031700000F090F8164B598B184B0222180000F003
:1031800089F8134B598B164B0322180000F082F874
:103190000F4B598B134B0422180000F07BF80C4B9B
:1031A000598B114B0522180000F074F8084B598B0D
:1031B0000E4B0622180000F06DF8054B598B0C4B96
:1031C0000722180000F066F8C046BD4680BDC04624
:1031D00010090020100200208C090020400500206A
:1031E0009C090020F8080020DC010020780700205E
:1031F0007C01002080B500AF1D4BD98F1D4B0022F4
:10320000180000F079F81A4BD98F1B4B01221800D7
:1032100000F072F8164BD98F184B0222180000F0FC
:103220006BF8134BD98F164B0322180000F064F88B
:103230000F4BD98F134B0422180000F05DF80C4B94
:10324000D98F114B0522180000F056F8084BD98F82
:103250000E4B0622180000F04FF8054BD98F0C4B8F
:103260000722180000F048F8C046BD4680BDC046A1
:1032700010090020100200208C09002040050020C9
:103280009C090020F8080020DC01002078070020BD
:103290007C01002080B582B000AF7860080011008A
:1032A000BB1C021C1A807B1C0A1C1A70BB1C1A88CF
:1032B0007B1C1B781A4113000122134003D07B684A
:1032C00001221A7102E07B6800221A717B680022D9
:1032D0005A807B681B79002B02D17B6801221A700F
:1032E0007B681B79012B02D17B6800221A70C046D3
:1032F000BD4602B080BD000080B584B000AF7860EC
:1033000008001100BB1C021C1A803B000A1C1A801A
:10331000384B1B781A003B001B881A41130001220E
:10332000134004D00F23FB1801221A7003E00F236F
:10333000FB1800221A707B681B780F22BA181278CB
:103340009A420FD07B680F22BA1812781A707B68E5
:10335000BA1C12885A807B685B88002B02D17B687C
:1033600001225A807B685B88002B1ED17B681B780A
:10337000002B03D17B681B79002B07D07B681B785F
:10338000012B32D17B681B79012B2ED13B001B888E
:1033900001229A4013001AB2174B1B881BB2134329
:1033A0001BB29AB2144B1A801FE07B681B78012B6A
:1033B00003D17B681B79002B07D07B681B78002B1F
:1033C00013D17B681B79012B0FD13B001B88012295
:1033D0009A4013001BB2DB431BB2074A128812B299
:1033E00013401BB29AB2044B1A80C046BD4604B0CB
:1033F00080BDC046AA0900207801002080B500AF3A
:10340000174B1B881A000123134011D0154B5B8DFD
:103410001BB21A00144B1B689A4209DC114B1B8823
:10342000012213439AB20F4B1A8001F079FB13E08B
:103430000C4B1B881A00012313400DD0094B1B882D
:10344000012293439AB2074B1A80064B5B880122F4
:1034500013439AB2034B5A80C046BD4680BDC04656
:103460007801002010090020CC01002080B500AFB9
:103470001B4B1B881A00022313401AD0194B1B88C0
:10348000022213439AB2174B1A80174B00221A716B
:10349000144B5B8A082293439AB2124B5A82114B07
:1034A0005B8A102293439AB20E4B5A8201F038FB8A
:1034B00013E00C4B1B881A00022313400DD0094B5C
:1034C0001B88022293439AB2064B1A80054B5B88F5
:1034D000022213439AB2034B5A80C046BD4680BDB8
:1034E00078010020100900205405002080B500AFAD
:1034F000194B1B881A000423134013D0164B5B8A08
:10350000082293439AB2144B5A82134B5B8A1022BF
:1035100093439AB2104B5A82104B5B790133DAB263
:103520000E4B5A710D4B5B79052B12D90A4B1B8838
:10353000042293439AB2084B1A80074B5B880422FB
:1035400013439AB2044B5A80044B00225A7101F083
:10355000E7FAC046BD4680BD100900205405002092
:1035600080B500AF1F4B1B881A000823134022D0E0
:103570001D4B1B88082213439AB21B4B1A801B4B0E
:1035800000221A71184B5B8A082293439AB2164B99
:103590005A82154B5B8A102293439AB2124B5A827D
:1035A000134B262200219954114B242200219954B7
:1035B00001F0B6FA13E00C4B1B881A0008231340E5
:1035C0000DD0094B1B88082293439AB2064B1A80F0
:1035D000054B5B88082213439AB2034B5A80C046BE
:1035E000BD4680BD78010020100900205405002050
:1035F000280D002080B500AF1A4B5B8D1BB21A005E
:10360000194B1B689A4216DD184B1B881A000123C0
:10361000134010D0134B1B88102213439AB2114B46
:103620001A80104B1B88012293439AB20D4B1A80CB
:1036300001F076FA13E00B4B1B881A00102313409D
:103640000DD0084B1B88102293439AB2054B1A8069
:10365000044B5B88102213439AB2024B5A80C04637
:10366000BD4680BD10090020CC010020780100205B
:1036700080B500AF4F4B1B881A000123134010D0B8
:103680004D4B1B888022D20013439AB24A4B1A80BA
:10369000494B9B8A1A000823134030D101F040FAAD
:1036A0002DE0444B1B881A000223134010D0424BDC
:1036B0001B888022120113439AB23F4B1A803E4B63
:1036C0009B8A1A000823134019D101F029FA16E049
:1036D000394B9B8D1BB21A00384B1B689A420EDC8B
:1036E000374B1B881A000123134008D1324B1B882B
:1036F000202213439AB2304B1A8001F011FA2E4B5C
:103700009B8D1BB21A002C4B5B8F1BB2D21A2B4B1A
:103710001B689A4213DD284B1B881A002023134094
:103720000DD0254B1B88202293439AB2224B1A803E
:10373000214B5B88202213439AB21F4B5A801D4BAA
:103740001B881A000123134015D11B4B1B881A003C
:103750008023DB0013400ED0174B1B88194A1340FF
:103760009AB2154B1A80144B5B888022D200134307
:103770009AB2114B5A800F4B1B881A000223134038
:1037800015D10D4B1B881A0080231B0113400ED04E
:10379000094B1B880C4A13409AB2074B1A80064B00
:1037A0005B888022120113439AB2034B5A80C046B1
:1037B000BD4680BDFE08002010090020CC0100207D
:1037C00078010020FFFBFFFFFFF7FFFF80B500AF90
:1037D000184B1B881A002023134014D0164B1B884B
:1037E000402213439AB2144B1A80144B2622012113
:1037F0009954124B242201219954104B00221A850E
:1038000001F08EF913E00C4B1B881A004023134083
:103810000DD0094B1B88402293439AB2064B1A8065
:10382000054B5B88402213439AB2034B5A80C04633
:10383000BD4680BD7801002010090020280D002021
:1038400080B500AF134B1B881A004023134009D0EA
:10385000114B1B88802213439AB20F4B1A8001F040
:103860005FF913E00C4B1B881A00802313400DD026
:10387000094B1B88802293439AB2074B1A80064B50
:103880005B88802213439AB2034B5A80C046BD46E0
:1038900080BDC046780100201009002080B500AF2F
:1038A000134B1B881A008023134008D0114B1B8830
:1038B0008022520013439AB20E4B1A8015E00D4B32
:1038C0001B881A0080235B0013400ED0094B1B8815
:1038D000094A13409AB2074B1A80064B5B88802234
:1038E000520013439AB2034B5A80C046BD4680BD76
:1038F0007801002010090020FFFEFFFF80B500AF17
:10390000C046BD4680BD000080B500AF864B1A881A
:10391000864B1B889A420CD0834B1A88834B1B889A
:103920009A4202D9052005F055FD7F4B1A887F4B3E
:103930001A807F4B1A887F4B1B889A421BD07D4B85
:103940001A887B4B1A807C4B1B78002B13D07B4A48
:103950007B4B1100180005F037FF764B1B881800D1
:10396000784B1022190011F0B5FE764A744B110005
:10397000180005F029FF6C4B9A88734B1B889A42FC
:1039800024D0694B9A88704B1B889A4202D9042034
:1039900005F020FD644B9A886B4B1A80664B1B78B0
:1039A000002B13D0694A664B1100180005F00CFF7C
:1039B0005D4B9B881800634B1022190011F08AFEA2
:1039C000604A5F4B1100180005F0FEFE604B0022BC
:1039D0009B5E1A00544B1B8B9A424FD05C4B0022CB
:1039E0009B5E1A00504B1B8B9A4202DA042005F0B2
:1039F000F1FC4D4B1B8B002B08D04B4B9B8880223E
:103A0000D20013439AB2484B9A8006E0464B9B88FB
:103A1000504A13409AB2444B9A80434B1B8B1AB2C4
:103A20004B4B1A80444B1B78002B27D04A4A444BFF
:103A30001100180005F0C8FE3B4BDB8A1800414B13
:103A40000222190011F046FE3E4A3D4B11001800BB
:103A500005F0BAFE414A3A4B1100180005F0B4FED9
:103A6000314B1B8B1800374B0222190011F032FE2C
:103A7000344A334B1100180005F0A6FE2E4B1B787C
:103A8000002B1DD0364B1A88364B1B889A4217D014
:103A9000354A2B4B1100180005F096FE314B1B8860
:103AA0001800284B1022190011F014FE254A244B4F
:103AB0001100180005F088FE2A4B1A88284B1A803E
:103AC000194B70229A5A294B1B799BB29A4205D006
:103AD000264B1B7999B2144B70229952124B1B89B9
:103AE000012B13D9FFF78AFCFFF7C0FCFFF7FEFCA0
:103AF000FFF736FDFFF77EFDFFF7BAFDFFF766FE25
:103B0000FFF79EFEFFF7CAFEFFF7F8FE064B1A8886
:103B1000054B5B8813439AB2064B1A8000F028F8D5
:103B2000C046BD4680BDC046100900209801002057
:103B3000860100203C050020F604002058580108AA
:103B4000003400201C020020C00700206458010837
:103B50008E050020FFFBFFFF705801087C5801080C
:103B6000060900207801002088580108540500202B
:103B700080B500AF1E4B5B8D1BB21A001D4B1B683E
:103B80009A4207DC1A4B9B88802213439AB2184B47
:103B90009A8006E0164B9B88802293439AB2144B7E
:103BA0009A80134BDB8E1BB21A00134B1B689A4290
:103BB00007DB0F4B9B888022520013439AB20C4BB9
:103BC0009A800B4BDB8E1BB21A00094B9B8F1BB2EA
:103BD000D218094B1B689A4206DC054B9B88074AA2
:103BE00013409AB2024B9A80C046BD4680BDC04683
:103BF00010090020CC01002000090020FFFEFFFF7B
:103C000080B582B000AF0200BB1D1A80754B1B88C7
:103C1000002B6DD0734B1B88180000F001FD0300D2
:103C2000012B03D9704B01221A7002E06E4B002267
:103C30001A70BB1D1B880B2B00D9CAE09A006B4B76
:103C4000D3181B689F466A4807234022012103F0CE
:103C5000A3FDC3E0674807234022012103F09CFD38
:103C6000BCE0654807234022012103F095FDB5E043
:103C7000624807234022012103F08EFDAEE0604838
:103C800007234022012103F087FDA7E05D480723B9
:103C90004022012103F080FDA0E05B480723402281
:103CA000012103F079FD99E05848072340220121C2
:103CB00003F072FD92E0564807234022012103F0F1
:103CC0006BFD8BE0534807234022012103F064FD84
:103CD00084E0514807234022012103F05DFD7DE08F
:103CE0004E4807234022012103F056FDC04675E0EF
:103CF0003C4B5B88002B00D16DE03A4B5B88180091
:103D000000F08EFC0300012B03D9374B01221A70FF
:103D100002E0354B00221A70BB1D1B880B2B5CD8B0
:103D20009A003F4BD3181B689F463148002310224E
:103D3000012103F031FD51E02E4800231022012122
:103D400003F02AFD4AE02C4800231022012103F051
:103D500023FD43E0294800231022012103F01CFD2C
:103D60003CE0274800231022012103F015FD35E037
:103D7000244800231022012103F00EFD2EE02248EA
:103D800000231022012103F007FD27E01F48002334
:103D90001022012103F000FD20E01D480023102225
:103DA000012103F0F9FC19E01A4800231022012137
:103DB00003F0F2FC12E0184800231022012103F066
:103DC000EBFC0BE0154800231022012103F0E4FC7A
:103DD00004E0C04602E0C04600E0C046C046BD4622
:103DE00002B080BD10090020C40100202464010835
:103DF00094580108985801089C580108A0580108D7
:103E0000A4580108A8580108AC580108B058010886
:103E1000B4580108B8580108BC580108C058010836
:103E20005464010880B584B000AF0200BB1D1A8045
:103E30007B1D0A1C1A700E23FB18BA1D12881A80EB
:103E40007B1D1B78002B22D15C4B1B88002B0DD0D7
:103E50005A4B1B881A00BB1D1B881A4113000122F4
:103E6000134014D17B1D01221A7010E0534B5B8864
:103E7000002B0CD0514B5B881A00BB1D1B881A41CC
:103E800013000122134002D17B1D01221A707B1DF9
:103E90001B78012B4CD1494B1B88002B20D00E21C5
:103EA0007B181A887B1801321A807B181B880C2B10
:103EB00003D90E23FB1800221A80404B1B881A00DE
:103EC0000E23FB181B881A411300012213402CD12A
:103ED0000E23FA18BB1D12881B889A42DFD127E0F7
:103EE000364B5B88002B23D00E217B181A887B1859
:103EF00001321A807B181B880C2B03D90E23FB1868
:103F000000221A802D4B5B881A000E23FB181B8899
:103F10001A4113000122134009D10E23FA18BB1DC8
:103F200012881B889A42DFD102E0C04600E0C046FA
:103F30007B1D1B78022B3AD1204B1B88002B17D0FE
:103F40000E217B181A887B18013A1A801B4B1B889C
:103F50001A007B181B881A4113000122134023D139
:103F60000E23FA18BB1D12881B889A42E8D11EE066
:103F7000124B5B88002B1AD00E217B181A887B18F5
:103F8000013A1A800D4B5B881A007B181B881A4176
:103F900013000122134009D10E23FA18BB1D128809
:103FA0001B889A42E8D102E0C04600E0C0460E23DA
:103FB000FB181B881800BD4604B080BD1009002006
:103FC00080B500AF3A4B0122DA813A4B00229A7059
:103FD000374B5B8A082293439AB2354B5A82364B51
:103FE00000221A80344B00225A80314B5B8A102207
:103FF00093439AB22E4B5A82304B00221A802F4B99
:1040000000225A802A4B9B88402293439AB2284B25
:104010009A80274B1B88042293439AB2244B1A8020
:10402000234B5B881A00022313400BD1204B5B8883
:104030001A000423134005D11D4B5B881A00082386
:10404000134003D01B4B00221A712DE0184B5B8AE2
:104050001A000123134027D0154B1B8A1A00012395
:10406000134015D1124B5B8A1A000423134007D06A
:104070000F4B5B8A102213439AB20D4B5A8213E006
:104080000B4B5B8A082213439AB2094B5A820BE00E
:10409000074B70229B5A052B03D8064B01221A713D
:1040A00002E0044B06221A71C046BD4680BDC046E0
:1040B000100900205405002028020020AC04002034
:1040C00080B500AFC04B1B8A1A000123134000D1FA
:1040D00090E1BE4B1B790C2B00D983E19A00BC4BBD
:1040E000D3181B689F46B84B5B8A1A000423134001
:1040F00014D0B84B00221A80B64B00225A80B24B23
:104100005B8A082293439AB2AF4B5A82AE4B5B8ACA
:10411000102213439AB2AC4B5A8213E0AE4B0022EA
:104120001A80AD4B00225A80A74B5B8A08221343AA
:104130009AB2A54B5A82A44B5B8A102293439AB23F
:10414000A14B5A82A54B1B881A0080239B00134069
:1041500006D1A24B1B881A008023DB00134002D03B
:10416000994B0422DA81994B02221A714FE1974B45
:10417000DB78002B00D03FE1944B03221A713BE126
:10418000914B5B8A1A00042313401AD1924B1B886F
:1041900001339AB2904B1A808F4B1B88904A9342FE
:1041A00005D98D4B5B8801339AB28B4B5A808A4B71
:1041B0005A88854B4C215B5A9A4202D3834B042286
:1041C0001A71814B5B8A1A00042313401AD0814B69
:1041D0001B8801339AB27F4B1A807E4B1B88804A22
:1041E000934205D97B4B5B8801339AB2794B5A8055
:1041F000784B5A88744B4C215B5A9A4202D3734BCA
:1042000004221A71754B1B881A000423134000D036
:10421000F4E06E4B06221A71F0E06B4B5B8A0822C9
:1042200093439AB2684B5A82674B5B8A102293433E
:104230009AB2654B5A82654B05221A71E7E0624BD0
:104240005B8A042253409AB25F4B5A825F4B012231
:104250001A71DCE05C4B5B8A082293439AB25A4B9A
:104260005A82594B5B8A102293439AB2564B5A8218
:10427000554B9B88402213439AB2534B9A80534B21
:1042800007221A71C3E0514B9B78002B00D0B7E096
:104290004D4B5B8A1A000423134006D14A4B5B8ABC
:1042A000102213439AB2484B5A82474B5B8A1A003A
:1042B0000423134006D0444B5B8A082213439AB26E
:1042C000414B5A82454B1B881A0080239B001340A8
:1042D00007D1424B1B881A008023DB00134000D11A
:1042E0008EE0394B0822DA81384B08221A7187E0B8
:1042F000364BDB78002B00D084E0344B09221A7156
:1043000080E0364B1B881A000423134000D07BE06A
:104310002E4B0A221A7177E02B4B1022DA812B4B9D
:1043200000225A71284B1B88042213439AB2264B51
:104330001A80264B00221A7169E0234B5B8A1A000F
:104340001823134033D0204B5B8A1A0004231340F8
:1043500013D01D4B5B8A1A00082313400DD01A4B53
:104360005B8A082293439AB2174B5A82164B5B8A98
:10437000102293439AB2144B5A82134B5B8A1A0051
:104380000423134013D1104B5B8A1A0010231340EF
:104390000DD00D4B5B8A082293439AB20A4B5A8286
:1043A000094B5B8A102293439AB2074B5A82074B00
:1043B0000C221A712BE0054B9B78002B26D1034B66
:1043C00001221A7122E0C046100900205405002085
:1043D00084640108AC040020280200207801002039
:1043E0000F0E0000704B5B8A182293439AB26E4BFB
:1043F0005A820CE0C0460AE0C04608E0C04606E02B
:10440000C04604E0C04602E0C04600E0C046664B3D
:104410005A8A664B1B889A4200D17CE0624B5A8ACA
:10442000624B1A80624B9B78002B00D073E05E4B8E
:104430005B8A1A0018231340182B00D16BE05A4BEB
:104440005B8A1A00082313401BD00121072003F0C8
:1044500049FA554B50229B5ADAB2534BDB8FDBB2F1
:10446000D318DBB20233DAB2514BDA70514B1B78FE
:10447000002B1AD0504A514B1100180005F0A4F936
:1044800013E00021072003F02DFA474B4E229B5AE0
:10449000DAB2474B9A70474B1B78002B05D0484A3D
:1044A000464B1100180005F08FF93F4B5B8A1A004C
:1044B000102313401BD00121062003F013FA3A4BBE
:1044C00050229B5ADAB2384BDB8FDBB2D318DBB207
:1044D0000233DAB2364BDA70364B1B78002B1AD027
:1044E000384A364B1100180005F06EF913E0002130
:1044F000062003F0F7F92C4B4E229B5ADAB22C4BD4
:104500009A702C4B1B78002B05D02F4A2B4B110097
:10451000180005F059F9244B5B8A1A000823134050
:1045200008D1214B5B8A1A001023134002D11E4B85
:104530000222DA811F4B1B78002B32D0234B1B78D1
:104540009AB2194B1B899A422BD0214A1B4B11005E
:10455000180005F039F9144B1B8918001D4B0A226D
:10456000190011F0B7F81B4A144B1100180005F0A0
:104570002BF90D4B1B89DAB2144B1A700A4B1B8AAC
:104580001A000123134006D0134A0C4B11001800E7
:1045900005F01AF905E0114A084B1100180005F062
:1045A00013F9C046BD4680BD100900201605002045
:1045B00054050020F6040020C458010800340020EF
:1045C000D0580108E0580108EC580108F408002010
:1045D000FC5801081C0200200C590108245901084C
:1045E00080B500AF0B4B5B8A082293439AB2094B0C
:1045F0005A82084B5B8A102293439AB2054B5A8227
:10460000054B00221A80054B00229A70C046BD4619
:1046100080BDC04610090020F80400205405002089
:1046200080B584B000AF0200BB1D1A800F23FB18B9
:1046300000221A700E23FB1800221A7015E0BB1D11
:104640001A880E23FB181B781A411300012213400D
:1046500005D00F217B181A787B1801321A700E21B1
:104660007B181A787B1801321A700E23FB181B78FE
:104670000B2BE4D90F23FB181B781800BD4604B0A0
:1046800080BD0000B0B500AF4C4B26229B5C012BD7
:1046900000D07EE0494B1B8D002B05D0474B1B8D76
:1046A000013B9AB2454B1A85444B5B8D002B05D0DC
:1046B000424B5B8D013B9AB2404B5A853F4B2422C3
:1046C0009B5C012B47D0022B59D03D4B1B782022FD
:1046D0009343DAB23A4B1A70384B25229C5C06F0B1
:1046E00017FF03009C421FD006F012FF03001900C1
:1046F000324B25229954334B1B78002B14D02F4B6F
:1047000025229B5C1800304B0A22190010F0E2FFB2
:104710002E4A2F4B1100180005F056F82A4A2C4B50
:104720001100180005F050F8244B25229B5C002B4B
:104730003BD0284BDB8B1800204B25229B5C1900BB
:10474000FBF774FD03009AB21C4B1A851B4B242205
:104750000121995429E0194B1B8D002B27D11D4BAA
:104760001A8C164B5A85164B1B7820221343DAB24B
:10477000134B1A70114B24220221995417E00F4B4E
:104780005B8D002B15D10D4B242200219954C0467E
:104790000FE00B4B1B7820229343DAB2084B1A70C0
:1047A000064B24220021995404E0C04602E0C04692
:1047B00000E0C046C046BD46B0BDC046280D002042
:1047C00004090020F60400201C02002038590108CA
:1047D000003400201009002080B582B000AF6B4B80
:1047E0009B8A1A000223134004D1684B9A8B684BB2
:1047F0001A80C7E0654B9B881A000223134005D13D
:10480000624B9B881A000423134004D05F4B9A8BA1
:104810005F4B1A8058E05F4B1B689BB21E339AB205
:104820003B1D1A80594B9A8C3B1D1B88D3189AB29A
:104830003B1D1A803B1D00229B5E002B02DA3B1DB4
:1048400000221A803B1D00229B5E322B02DD3B1DA5
:1048500032221A804D4B5A8CBB1D1A80BB1D002280
:104860009B5E012B02DCBB1D02221A80BB1D0022B5
:104870009B5E322B02DDBB1D32221A80BB1D002243
:104880009A5E3B1D0021595E434813005B009B1854
:104890001A019B18C3185B5C9AB23D4B1A803C4BC3
:1048A0001B884B2B02D93A4B4B221A80384B1B8862
:1048B0001900364B6C229B5A1BB2994204DA334BD7
:1048C0006C229A5A324B1A80344B1B78002B59D0E9
:1048D000334B1A882E4B1B889A4253D0314A324BA5
:1048E0001100180004F070FF294B1B8818002F4B93
:1048F0000A22190010F0EEFE2C4A2B4B1100180072
:1049000004F062FF2A4A284B1100180004F05CFFF3
:10491000204B1B6825490A22180010F0DBFE234AB1
:10492000214B1100180004F04FFF194B1A881C4B43
:104930001A80204A1C4B1100180004F045FF134B4D
:104940005B8C1800194B0A22190010F0C3FE174A9D
:10495000154B1100180004F037FF174A124B1100D5
:10496000180004F031FF094B9B8C1BB218000F4B51
:104970000A22190010F0AEFE0C4A0B4B1100180071
:1049800004F022FFBD4602B080BDC04610090020E1
:10499000AC09002048050020446D0108F604002001
:1049A000B00400204C590108003400201C020020F3
:1049B00060590108705901087C59010890B585B00B
:1049C00000AF0200BB1D1A8008243B1908220021F9
:1049D000180010F08CFEBB1D00229B5E39190A22C4
:1049E000180010F077FEBB1D00229B5E002B38DA0A
:1049F0000823FB181800FBF787FB0300022B0AD1E2
:104A00000823FB185A78374B9A70364B30225A706D
:104A1000344B2D221A700823FB181800FBF774FB87
:104A20000300032B0BD108217B189A782D4B9A7029
:104A30007B185A782B4B5A702A4B2D221A70082358
:104A4000FB181800FBF760FB0300032B45D9254B2F
:104A500020229A70234B20225A70224B20221A7057
:104A60003BE00823FB181800FBF74EFB0300012B6B
:104A70000AD10823FB181A781A4B9A70194B302266
:104A80005A70184B30221A700823FB181800FBF7D5
:104A90003BFB0300022B0BD108217B185A78114BEA
:104AA0009A707B181A780F4B5A700E4B30221A707E
:104AB0000823FB181800FBF727FB0300022B0CD977
:104AC00008217B189A78074B9A707B185A78054B07
:104AD0005A707B181A78034B1A70024B1800BD46A7
:104AE00005B090BD1C02002080B500AFFFF774FE3A
:104AF000074B6E229B5ADAB2064B9A70064B002285
:104B00001A80064B00221A80C046BD4680BDC046B2
:104B100010090020280D002078010020FE08002048
:104B200080B500AF0B4B9B78002B0FD0094B9B78C7
:104B3000112B0CD8084BDB8A002B03D0054B12221B
:104B40009A7004E0034B00229A7000E0C046BD4614
:104B500080BDC046280D00201009002080B500AFA0
:104B6000674B684A5A60664B674A9A60644B674A6B
:104B7000DA60634B664A1A61614B664A5A61604B60
:104B8000654A9A615E4B654ADA615D4B644A1A6216
:104B90005B4B644A5A625A4B634A9A62584B634A67
:104BA000DA62574B624A1A63554B624A5A63544B56
:104BB000614A9A63524B614ADA63514B604A1A6404
:104BC0004F4B604A5A644E4B5F4A9A644C4B5F4A63
:104BD000DA644B4B5E4A1A65494B5E4A5A65484B4C
:104BE0005D4A9A65464B5D4ADA65454B5C4A1A66F2
:104BF000434B5C4A5A66424B5B4A9A66404B5B4A5F
:104C0000DA663F4B5A4A1A673D4B5A4A5A673C4B41
:104C1000594A9A673A4B594ADA67394B8021584AC0
:104C20005A50374B8421574A5A50354B8821564A9F
:104C30005A50334B8C21554A5A50314B9021544A8B
:104C40005A502F4B9421534A5A502D4B9821524A77
:104C50005A502B4B9C21514A5A50294BA021504A63
:104C60005A50274BA4214F4A5A50254BA8214E4A4F
:104C70005A50234BAC214D4A5A50214BB0214C4A3B
:104C80005A501F4BB4214B4A5A501D4BB8214A4A27
:104C90005A501B4BBC21494A5A50194BC021484A13
:104CA0005A50174BC421474A5A50154BC821464AFF
:104CB0005A50134BCC21454A5A50114BD021444AEB
:104CC0005A500F4BD421434A5A500D4BD821424AD7
:104CD0005A500B4BDC21414A5A50094BE021404AC3
:104CE0005A50074BE4213F4A5A50054BE8213E4AAF
:104CF0005A50034BEC213C4A5A50C046BD4680BD39
:104D0000C4070020780100203C0500201409002081
:104D1000160900201A0900201E0900202009002081
:104D2000220900202409002026090020280900204B
:104D30002A0900207E07002082010020FA040020BA
:104D4000C60100202C090020AC0900202E090020FB
:104D500030090020320900203409002036090020E3
:104D6000380900203A0900203C0900203E090020B3
:104D70004009002042090020440900204609002083
:104D8000480900204A0900204C0900204E09002053
:104D9000500900205409002056090020580900201D
:104DA0005C0900205E0900206009002062090020E3
:104DB000640900205A0900206C0900206E090020B7
:104DC0006A09002066090020680900207009002097
:104DD000720900207409002076090020780900205B
:104DE0007A0900207C0900208409002080B500AFEA
:104DF00000F054F8214B54229B5ADAB2204B1A701F
:104E00002049AC23FF330A22180010F063FC1E4A2D
:104E10001E4B1100180004F0D7FC1A4B1800FBF7CA
:104E200073F90300032B05D8194A184B1100180019
:104E300004F0CAFC134A154B1100180004F0C4FC1E
:104E4000144A124B1100180004F0BEFC124A0F4B1A
:104E50001100180004F0B8FC094B1B781800094B2E
:104E60001022190010F036FC064A084B11001800F9
:104E700004F0AAFCC046BD4680BDC0461009002013
:104E8000AC0800201C0200208859010800340020D2
:104E90009C590108A0590108B059010880B500AF1C
:104EA000274B1A68264B20210A431A60244B9B8CFF
:104EB0009BB2DAB2234BDA73234B1A68224B2021C0
:104EC0000A431A60204B9B8C9BB2DAB21F4BDA73F9
:104ED0001F4B0022402118000CF087FB194B0022C9
:104EE0005A80184AD0235B000021D154154AA223CE
:104EF000FF330021D154134B00229A80154B5222CC
:104F00009A5A104B9A810F4B00229A730F4B002232
:104F10005A800E4AD0235B000021D1540B4AA223B1
:104F2000FF330021D154094B00229A80074B002205
:104F30009A81064B00229A73C046BD4680BDC0468A
:104F400000380140F4020020004800409005002095
:104F5000000800481009002080B500AF314B9B8845
:104F6000002B05D02F4B9B88013B9AB22D4B9A808A
:104F70002C4B9B88012B09D12A4AD0235B00D35CA0
:104F80000133D9B2274AD0235B00D154264B9B88EA
:104F9000002B05D0244B9B88013B9AB2224B9A8070
:104FA000214B9B88012B09D11F4AD0235B00D35C86
:104FB0000133D9B21C4AD0235B00D15400F036F83B
:104FC00000F050F8174BDB88002B05D0154BDB8821
:104FD000013B9AB2134BDA80124BDB88012B07D1CD
:104FE000104B0022DA800F4AD0235B000021D154FD
:104FF0000D4BDB88002B05D00B4BDB88013B9AB2B5
:10500000094BDA80084BDB88012B07D1064B0022C5
:10501000DA80054AD0235B000021D154C046BD464A
:1050200080BDC046F40200209005002080B500AF8E
:105030000B4AD0235B00D35C002B0DD0084AA02381
:10504000FF330121D154064B180000F079F9044ACE
:10505000D0235B000021D154C046BD4680BDC04670
:10506000F402002080B500AF0E4AD0235B00D35C71
:10507000002B13D00B4AA023FF330321D154094B3B
:10508000180000F011F803001900064AD1235B0054
:10509000D154044AD0235B000021D154C046BD4600
:1050A00080BDC04690050020B0B586B000AF7860E6
:1050B0001723FB1800221A707B685B88032B07D824
:1050C0007B68180000F024F91723FB181B780CE10B
:1050D00014217B187A6852881A807B181B88013B40
:1050E0007A68D318DB7BFB60FB681B02FB607B18D4
:1050F0001B88023B7A68D318DB7B1A00FB681343DA
:10510000FB607B680F331A007B181B88023B9BB245
:1051100012257C191900100002F0E4F80300238026
:105120007B191B88FA689A4207D07B68180000F048
:10513000EFF81723FB181B78D7E01723FB18012281
:105140001A707B68DB7B180005F01AFD0300BB605A
:105150007B681B7C033B0E2B00D989E09A00654BD2
:10516000D3181B689F461223FB1801221A807B6804
:105170005B7C9AB27B681A801423FB1800221A8089
:1051800035E014243B191B8803337A68D318DB7B82
:105190009BB212203A1812881B0299B2BB685200C7
:1051A000D1523B181A88BB685200D15A3B191B8850
:1051B00004337A68D318DB7B9BB23A1812880B430E
:1051C00099B2BB685200D1523B181A883B18013281
:1051D0001A803B181B884C2B03D91223FB184C2236
:1051E0001A801422BB18BA18128802321A807B68FF
:1051F0001B881422BA1812889A42C2D339E01421AB
:105200007B181B8802337A68D318DB7B9BB21B02A6
:105210009AB2394B1A80384B1A8808007B181B88C1
:1052200003337968CB18DB7B9BB213439AB2324BC2
:105230001A8001007B181B8804337A68D318DB7B43
:105240009BB21B029AB22C4B5A802B4B5A887B186C
:105250001B8805337968CB18DB7B9BB213439AB26A
:10526000254B5A8005E07B68180000F0F3FF00E052
:10527000C0467B681B7C5BB2002B2FDA1723FB1820
:1052800002221A701D4B1B78002B27D01C4A1D4B85
:105290001100180004F098FA7B681B7C18001A4B68
:1052A0001022190010F016FA174A164B11001800B8
:1052B00004F08AFA154A134B1100180004F084FA1E
:1052C0007B685B7C1800104B1022190010F002FA6A
:1052D0000D4A0C4B1100180004F076FA7B68180098
:1052E00000F016F81723FB181B781800BD4606B00F
:1052F000B0BDC046B864010834070020F6040020A1
:10530000C4590108003400201C020020D4590108AF
:1053100080B582B000AF78607B6800225A807B68DD
:1053200000225A747B6800229A747B680022DA7427
:105330007B6800221A75C046BD4602B080BD0000E1
:10534000F0B5ADB024AF78607B685B88032B05D8DF
:105350007B681800FFF7DCFF00F077FF1323FB18D2
:1053600000221A707B685B88DAB2CA4B1A70CA4B8B
:105370001B78002B09D07B680F331900C54B1B78B5
:105380001A00C64B180010F0A9F916217B187A688C
:1053900052881A807B181B88013B7A68D318DB7B04
:1053A000BB61BB691B02BB617B181B88023B7A682F
:1053B000D318DB7B1A00BB691343BB617B680F33D7
:1053C0001A007B181B88023B9BB21900100001F0E9
:1053D00089FF0300FB61BA69FB699A4200D19EE034
:1053E000AD4B1B78002B00D193E0BB691A0A142047
:1053F0003B181A80BB691B02BB61BB6999B20400F0
:105400003B193A1912880A431A803B191B88A44990
:105410001022180010F05EF9A24AA34B11001800E8
:1054200004F0D2F99E4AA04B1100180004F0CCF908
:10543000FB691A0A3B191A80FB691B02FB61FB69B5
:1054400099B23B193A1912880A431A803B191B88F2
:1054500093491022180010F03DF9944A924B110024
:10546000180004F0B1F98E4A8F4B1100180004F0B7
:10547000ABF97B685B881800894B0A22190010F091
:1054800029F98B4A884B1100180004F09DF9844AD1
:10549000854B1100180004F097F9864A824B1100E1
:1054A000180004F091F93B1900221A8029E0142316
:1054B000FB181B88794AD35C1800794B102219001D
:1054C00010F008F9764B1800FAF71EFE0300012BC6
:1054D00005D1794A744B1100180004F075F9704A2F
:1054E000714B1100180004F06FF9744A6E4B1100F3
:1054F000180004F069F914217B181A887B1801320E
:105500001A80644B1B789BB21422BA1812889A42F4
:10551000CDD37B681800FFF7FBFE00F096FE684BCA
:1055200052229A5A7B689A817B68DA7B654B1B789A
:105530009A4205D07B68DB7B002B01D000F081FE16
:105540007B685B7C9BB21B029AB27B681A817B688A
:105550001A897B689B7C9BB213439AB27B681A8141
:105560007B68DB7C9BB21B029AB27B685A817B68AA
:105570005A897B681B7D9BB213439AB27B685A8120
:105580007B681B7CA02B00D113E314DC062B00D11D
:105590005AE105DC033B012B01D900F02FFE25E089
:1055A000102B00D11CE2112B00D1FDE2082B00D101
:1055B000EDE100F023FEA82B01D100F0E8FB07DCB1
:1055C000A22B00D1FEE2A42B00D104E300F016FED2
:1055D000AC2B01D100F0E7FCAE2B01D100F0C0FDF7
:1055E000AA2B01D100F0C3FC00F008FE7B68187CF8
:1055F0007B6819897B685A897B680F33063301F011
:105600008FFA304B19787B68D72299547B68197CC4
:105610007B68D82299547B68D922002199540323AE
:10562000FB61294B1B78002B05D000DAC5E00A2B63
:1056300000DDC2E081E01623FB1800221A8073E02F
:105640001F4B1B89012B41D11F4B5B881A0016236E
:10565000FB181B88D318022B08D01B4B5B881A0041
:105660001623FB181B88D318032B2FD1FB695A1C58
:10567000FA617A68D721D3185B1800221A70FB6987
:105680005A1CFA617A68D721D3185B1800221A7065
:1056900044E0C046FC040020F60400202C02002058
:1056A0001C020020E059010800340020F8590108CC
:1056B000145A0108205A01089C590108305A01085F
:1056C00010090020AC080020B0090020D24B5B88F4
:1056D0001A001623FB181B88D218D04B9200D25800
:1056E00014243B1912881A803B191B881B0A99B293
:1056F000FB695A1CFA61C8B27A68D721D3185B18C3
:10570000021C1A70FB695A1CFA613A191288D0B24D
:105710007A68D721D3185B18021C1A7016217B18DF
:105720001A887B1801321A80BB4B9B881622BA1844
:1057300012889A4200D283E744E0B74B1B781800E6
:1057400005F01EFA0300FB601623FB1800221A80E6
:105750002BE0B14B5B881A0016243B191B88D1182B
:1057600014257B19FA6849008A5A1A807B191B880C
:105770001B0A99B2FB695A1CFA61C8B27A68D72130
:10578000D3185B18021C1A70FB695A1CFA617A194B
:105790001288D0B27A68D721D3185B18021C1A700D
:1057A0003B191A883B1901321A809B4B9B881622A1
:1057B000BA1812889A42CCD304E01323FB180222B1
:1057C0001A70C0461323FB181B78002B1BD116231D
:1057D000FB181B88DBB2DB18D9B27B68D92299543D
:1057E0007B68D733FA6992B21100180001F07AFD94
:1057F000FB699BB202339AB27B681100180001F07A
:1058000017FC00F019FD864B19787B68D722995454
:105810007B681B7C802252421343D9B27B68D8221A
:1058200099547B681322BA18D92112785A547B688C
:10583000D7330321180001F055FD7B6805211800BE
:1058400001F0F6FB00F0F8FC7B6819897B680F33E8
:1058500004330122062001F063F96F4B1B78002B03
:1058600003D036DB0A2B34DC0CE06B4B5A886A4BD6
:105870009B8813217C181900100000F02DFD0300F7
:1058800023702BE0644B1A88598809040A433A6054
:105890009A88D98809040A4316001A895989090483
:1058A0000A4315009A89D98909040A4314006A46F3
:1058B000100010338E2219000FF010FF38683100ED
:1058C0002A00230001F06EFB1323FB1800221A703C
:1058D00004E01323FB1802221A70C0461323FB189E
:1058E0001B78002B32D14E4B19787B68D722995404
:1058F0007B68197C7B68D82299547B681B891B0ABA
:105900009BB2D9B27B68D92299547B681B89D9B2E2
:105910007B68DA2299547B685B891B0A9BB2D9B2F7
:105920007B68DB2299547B685B89D9B27B68DC2277
:1059300099547B68D7330621180001F0D3FC7B68AB
:105940000821180001F074FB00F076FC344B197844
:105950007B68D72299547B681B7C80225242134378
:10596000D9B27B68D82299547B681322BA18D921FE
:1059700012785A547B68D7330321180001F0B2FC27
:105980007B680521180001F053FB00F055FC16233D
:10599000FB1800221A8012E016243B191A883B19C2
:1059A0001B8879688A18D07B7A68D721D3185B184E
:1059B000021C1A703B191A883B1901321A807B6845
:1059C0005B881622BA1812889A42E5D31623FB1870
:1059D0001A887B681100180001F02AFB00F02CFCEB
:1059E0007B6819897B685A897B680F3307331020DD
:1059F00001F096F8084B1B78002B05D000DA7BE00D
:105A00000A2B00DD78E04BE00023BB611623FB1876
:105A100000221A803AE0C046B0090020C4070020E6
:105A2000AC080020BB695A1CBA61E04AD3189B79C4
:105A30009AB214203B1812021A80BB695A1CBA6130
:105A4000DA4AD3189B7999B23B183A1812880A435C
:105A50001A80D64B5A881623FB181B88D3189AB283
:105A60001323FC183B181B881900100000F034FCAD
:105A7000030023707B685B7D1A00BB6993420DD8DD
:105A800016217B181A887B1801321A80C74B9B8815
:105A90001622BA1812889A42C4D332E0C04630E0C7
:105AA000C24B1A88598809040A433A609A88D988EF
:105AB00009040A4316001A89598909040A43150082
:105AC0009A89D98909040A4314006A4610001033E0
:105AD0008E2219000FF002FE386831002A002300E0
