:020000040800F2
:1000000000400020E51B0008E9190008EF1900086E
:1000100000000000000000000000000000000000E0
:10002000000000000000000000000000F5190008BA
:100030000000000000000000FF190008091A000875
:10004000351C000800000000351C0008351C0008A5
:10005000351C0008351C0008171A0008351C00085C
:1000600000000000351C0008351C0008351C000885
:10007000351C0008351C0008351C00080000000075
:10008000351C0008291A0008511A0008351C000800
:10009000351C0008351C0008351C0008351C0008FC
:1000A000351C0008351C0008351C0008791A0008AA
:1000B000351C0008291B000800000000351C000842
:1000C00010B5064C2378002B07D1054B002B02D02E
:1000D000044800E000BF0123237010BD0C00002085
:1000E0000000000080540008044B10B5002B03D022
:1000F0000349044800E000BF10BDC04600000000F6
:1001000010000020805400080023C25C0133002A44
:10011000FBD1581E70470000002243088B4274D365
:1001200003098B425FD3030A8B4244D3030B8B42F8
:1001300028D3030C8B420DD3FF22090212BA030C01
:100140008B4202D31212090265D0030B8B4219D3E2
:1001500000E0090AC30B8B4201D3CB03C01A524102
:10016000830B8B4201D38B03C01A5241430B8B424A
:1001700001D34B03C01A5241030B8B4201D30B0333
:10018000C01A5241C30A8B4201D3CB02C01A52415A
:10019000830A8B4201D38B02C01A5241430A8B421D
:1001A00001D34B02C01A5241030A8B4201D30B0206
:1001B000C01A5241CDD2C3098B4201D3CB01C01A20
:1001C000524183098B4201D38B01C01A524143092A
:1001D0008B4201D34B01C01A524103098B4201D318
:1001E0000B01C01A5241C3088B4201D3CB00C01A85
:1001F000524183088B4201D38B00C01A52414308FD
:100200008B4201D34B00C01A5241411A00D2014621
:10021000524110467047FFE701B5002000F0F0F8AA
:1002200002BDC0460029F7D076E7704703460B436E
:100230007FD4002243088B4274D303098B425FD3DF
:10024000030A8B4244D3030B8B4228D3030C8B420B
:100250000DD3FF22090212BA030C8B4202D31212F1
:10026000090265D0030B8B4219D300E0090AC30BC6
:100270008B4201D3CB03C01A5241830B8B4201D373
:100280008B03C01A5241430B8B4201D34B03C01A5C
:100290005241030B8B4201D30B03C01A5241C30AD4
:1002A0008B4201D3CB02C01A5241830A8B4201D345
:1002B0008B02C01A5241430A8B4201D34B02C01A2F
:1002C0005241030A8B4201D30B02C01A5241CDD2D4
:1002D000C3098B4201D3CB01C01A524183098B421F
:1002E00001D38B01C01A524143098B4201D34B0108
:1002F000C01A524103098B4201D30B01C01A52416B
:10030000C3088B4201D3CB00C01A524183088B42F1
:1003100001D38B00C01A524143088B4201D34B00DA
:10032000C01A5241411A00D201465241104670474C
:100330005DE0CA0F00D04942031000D34042534051
:1003400000229C4603098B422DD3030A8B4212D311
:10035000FC22890112BA030A8B420CD38901921143
:100360008B4208D3890192118B4204D389013AD080
:10037000921100E08909C3098B4201D3CB01C01A55
:10038000524183098B4201D38B01C01A5241430968
:100390008B4201D34B01C01A524103098B4201D356
:1003A0000B01C01A5241C3088B4201D3CB00C01AC3
:1003B000524183088B4201D38B00C01A5241D9D2DB
:1003C00043088B4201D34B00C01A5241411A00D25C
:1003D0000146634652415B10104601D34042002B58
:1003E00000D54942704763465B1000D3404201B5D7
:1003F000002000F005F802BD0029F8D016E770478C
:100400007047C04680B582B000AF00F02FF8124BA5
:1004100001221A70114B1B78012B19D1104A114B74
:100420001100180000F040FD0F4A0E4B110018009B
:1004300000F03AFD084B1B7818003B1D10221900F4
:1004400004F0C6FF3A1D074B1100180000F02CFD08
:10045000C046BD4602B080BDE6040020B2020020C6
:100460009854000810060020C854000880B500AF5A
:10047000274B1A68264B20210A431A60244B9B8C79
:100480009BB2DAB2234B5A73234B1A68224B2021BA
:100490000A431A60204B9B8C9BB2DAB21F4B5A73F3
:1004A0001F4B00224021180002F049F91D4B022287
:1004B0001A80184B00221A80164AC7235B000021BD
:1004C000D154144A9023FF330021D154114B002200
:1004D0005A80104B14225A810E4B00221A730F4B74
:1004E00000221A800D4AC7235B000021D1540B4A19
:1004F0009023FF330021D154084B00225A80074B30
:1005000014225A81054B00221A73C046BD4680BD95
:100510000038014020010020004800402C0300204A
:1005200000080048BC04002080B500AF314B5B8858
:10053000002B05D02F4B5B88013B9AB22D4B5A8084
:100540002C4B5B88012B09D12A4AC7235B00D35C63
:100550000133D9B2274AC7235B00D154264B5B88AD
:10056000002B05D0244B5B88013B9AB2224B5A806A
:10057000214B5B88012B09D11F4AC7235B00D35C49
:100580000133D9B21C4AC7235B00D15400F036F8BE
:1005900000F054F8174B9B88002B05D0154B9B8817
:1005A000013B9AB2134B9A80124B9B88012B07D1C7
:1005B000104B00229A800F4AC7235B000021D154C0
:1005C0000D4B9B88002B05D00B4B9B88013B9AB2AF
:1005D000094B9A80084B9B88012B07D1064B0022C0
:1005E0009A80054AC7235B000021D154C046BD460E
:1005F00080BDC046200100202C03002080B500AF44
:100600000C4AC7235B00D35C002B10D0094A8E2311
:10061000FF330121D154084B1A88064B9A80054BB1
:1006200000221A80034AC7235B000021D154C04630
:10063000BD4680BD20010020BC04002080B500AF75
:100640000C4AC7235B00D35C002B10D0094A8E23D1
:10065000FF330321D154084B1A88064B9A80054A70
:10066000C7235B000021D154024B00221A80C046F0
:10067000BD4680BD2C030020BC04002080B500AF27
:10068000334B00221A70334B00221A70324B012276
:100690001021180002F053F82F4B012220211800DE
:1006A00002F04DF82C4B00220821180002F047F808
:1006B000294B01220821180002F041F880231B0178
:1006C00026480022190002F03AF880235B012348F3
:1006D0000022190002F033F8802319029023DB0571
:1006E0000122180002F02BF8802319029023DB0569
:1006F0000022180002F023F8194B002204211800F0
:1007000002F01DF8164B01220421180002F017F820
:10071000144BFF221A70134BFF225A70114BFF2209
:100720009A70104B6022DA700E4B06221A710D4B34
:1007300000225A710B4B00229A710A4B0122DA7186
:10074000FFF760FE084B01221A70C046BD4680BD0F
:10075000DB020020040300200004004800080048D9
:10076000000C0048380500203205002080B500AF9D
:1007700000F050F90B4B1B780A2B04D1FFF7D4FE85
:10078000084B00221A70084B1B88002B05D0064B23
:100790001B88013B9AB2044B1A8000F007F8C04650
:1007A000BD4680BD050300203405002080B588B01B
:1007B00004AF5D4B1B78072B00D9ABE09A005B4B75
:1007C000D3181B689F465A4B00221A80594B0022AF
:1007D0001A80554B02221A70574BFA2292001A8047
:1007E000564800230022002100F0D8F897E0524B31
:1007F0001B88002B00D08FE04B4B03221A708BE03C
:100800004F4B4022FF21180004F0F5FD484B1A8899
:100810004C480A23029340230193494B009302233F
:10082000A02102F065F8444B0A221A803E4B0422B4
:100830001A7074E0404B1B88002B00D06EE03A4BDE
:1008400005221A706AE03A4B1A883E480A2302933E
:10085000402301933C4B00930223A02102F076F940
:100860003949374B4022180004F0B6FD031E05D06D
:10087000304B1B8801339AB22E4B1A802A4B06222A
:100880001A704CE02A4B1B881BB2002B29DB284B2B
:100890001B8840339AB2264B1A80234B03221A70CE
:1008A000234B1B881A0080231B029A1A4823FF330C
:1008B00019001000FFF7BAFC0300D9175A184A4074
:1008C0000E217B181A807B181B88391D0A221800FC
:1008D00004F07EFD381D00230022002100F05EF8A8
:1008E0001DE0114B07221A7019E0124B1B88002BD8
:1008F00006D0164800230222402100F04FF805E000
:10090000124800230422202100F048F8064B002260
:100910001A7004E0C04602E0C04600E0C046C0468F
:10092000BD4604B080BDC046320500201C550008FD
:1009300030050020D802002034050020F4540008BF
:10094000EC040020C405002060000020F8540008DA
:1009500080B500AF00F004F8C046BD4680BD000081
:1009600080B500AF0B4B5B89002B05D0094B5B8931
:10097000013B9AB2074B5A81074B5B89002B05D08C
:10098000054B5B89013B9AB2034B5A81C046BD4679
:1009900080BDC046200100202C03002090B583B00C
:1009A00000AF78600C0010001900FB1C221C1A70AC
:1009B000BB1C021C1A707B1C0A1C1A70144BFA1CFC
:1009C0001278DA70124BBA1C12781A717B681B7895
:1009D000180000F0FFF903001A000D4B1A707B6835
:1009E00001331B78180000F0F5F903001A00084BDA
:1009F0005A707B6802331B78180000F0EBF9030093
:100A00001A00034B9A70C046BD4603B090BDC04665
:100A10003805002080B500AF924B9B79002B05D0A4
:100A2000904B9B79013BDAB28E4B9A718D4B9B793F
:100A3000002B00D013E18B4BDB79052B00D9D6E0DE
:100A40009A00894BD3181B689F46864B1B78002160
:100A5000180000F00DF980235B0184480022190082
:100A600001F06DFE80239B0180480022190001F0F7
:100A700066FE8023DB017D480022190001F05FFE45
:100A800080231B0279480022190001F058FE8023C0
:100A90001B0176480122190001F051FECBE0714B99
:100AA0005B780021180000F0E3F880231B016F48F9
:100AB0000022190001F043FE80239B016B480022B5
:100AC000190001F03CFE8023DB0168480022190078
:100AD00001F035FE80231B0264480022190001F05A
:100AE0002EFE80235B0161480122190001F027FEE0
:100AF000A1E05C4B9B780021180000F0B9F880233E
:100B00001B015A480022190001F019FE80235B01E5
:100B100056480022190001F012FE8023DB015348E1
:100B20000022190001F00BFE80231B024F48002217
:100B3000190001F004FE80239B014C48012219009A
:100B400001F0FDFD77E0474BDB780021180000F055
:100B50008FF880231B0145480022190001F0EFFDAA
:100B600080235B0141480022190001F0E8FD802349
:100B70009B013E480022190001F0E1FD80231B0289
:100B80003A480022190001F0DAFD8023DB013748E2
:100B90000122190001F0D3FD4DE0324B1B790021F9
:100BA000180000F065F880231B013048002219006E
:100BB00001F0C5FD80235B012C480022190001F0E3
:100BC000BEFD80239B0129480022190001F0B7FDDA
:100BD0008023DB0125480022190001F0B0FD8023AD
:100BE0001B0222480122190001F0A9FD23E0802305
:100BF0001B011E480022190001F0A1FD80235B01AA
:100C00001A480022190001F09AFD80239B01174821
:100C10000022190001F093FD8023DB01134800221C
:100C2000190001F08CFD80231B02104800221900DE
:100C300001F085FDC0460B4BDB79002B05D0094B3D
:100C4000DB790133DAB2074BDA71064BDB79052B1E
:100C500002D9044B0122DA71024B03229A71C04679
:100C6000BD4680BD380500203C5500080004004802
:100C700080B584B000AF0200FB1D1A70BB1D0A1CBA
:100C80001A700E23FB1800221A704F4B0022082105
:100C9000180001F054FD4C4B01220821180001F00E
:100CA0004EFD494B01221021180001F048FD464B32
:100CB00001222021180001F042FD0F23FB18002221
:100CC0001A705DE00E23FA18FB181B78DB181370FE
:100CD0008023DB003D4A1900100001F013FD031EC4
:100CE00006D00E22BB18BA18127801210A431A70D6
:100CF000FB1D1B785BB2002B07DA80231B013348F6
:100D00000122190001F01BFD06E080231B012F4882
:100D10000022190001F013FDBB1D1B785BB2002BF4
:100D200007DA80235B0129480122190001F007FD41
:100D300006E080235B0125480022190001F0FFFC3A
:100D4000802319029023DB050122180001F0F7FC33
:100D5000802319029023DB050022180001F0EFFC2C
:100D6000FA1DFB1D1B78DB181370BA1DBB1D1B7809
:100D7000DB1813700F217B181A787B1801321A7058
:100D80000F23FB181B78072B9CD9114B0022042141
:100D9000180001F0D4FC0E4B01220421180001F0D0
:100DA000CEFC094B00221021180001F0C8FC064BB4
:100DB00000222021180001F0C2FC0E23FB181B7832
:100DC0001800BD4604B080BD00040048000800487B
:100DD000000C004880B584B000AF0200FB1D1A7003
:100DE000FB1D1B78203B322B4FD89A002D4BD3187C
:100DF0001B689F460F23FB18D7221A704AE00F2367
:100E0000FB1811221A7045E00F23FB1867221A7095
:100E100040E00F23FB1875221A703BE00F23FB18EC
:100E2000B1221A7036E00F23FB18F4221A7031E059
:100E30000F23FB18F6221A702CE00F23FB18512207
:100E40001A7027E00F23FB18F7221A7022E00F23F5
:100E5000FB18F5221A701DE00F23FB1800221A70F0
:100E600018E00F23FB1820221A7013E00F23FB1841
:100E7000C6221A700EE00F23FB1886221A7009E0B2
:100E80000F23FB1822221A7004E00F23FB18002204
:100E90001A70C0460F23FB181B781800BD4604B01B
:100EA00080BDC0465455000880B582B000AF786060
:100EB00039603B681800FFF727F903009AB23968D8
:100EC0007868642303F01EFBC046BD4602B080BDB7
:100ED00080B500AF00F0B0FE00F026F800F048FA50
:100EE00000F08AF800F018F900F056F900F092F9D5
:100EF00000F0B2F900F0D4F900F00AFA074B012231
:100F00001A70FFF7BBFB064B180003F097F8054B70
:100F1000180003F093F800F045FBFCE7B202002054
:100F2000940600208007002090B597B000AF2824D9
:100F30003B19180030231A00002104F05CFA182332
:100F4000FB18180010231A00002104F054FA3B1D6E
:100F5000180014231A00002104F04DFA21007B1818
:100F600011221A607B1801225A607B1801225A61F3
:100F70007B1810229A617B1802221A627B18802249
:100F800052025A627B188022D2029A627B18002297
:100F9000DA627B18180002F0F7F9031E01D000F0A6
:100FA0001DFB18217B1807221A607B1802225A6049
:100FB0007B1800229A607B180022DA607B180121DE
:100FC000180002F0FFFC031E01D000F007FB3B1DE0
:100FD00021221A603B1D00229A603B1D1022DA601C
:100FE0003B1D180002F044FE031E01D000F0F6FA8B
:100FF000C046BD4617B090BD80B584B000AF3B1D64
:1010000018000C231A00002104F0F5F9404B414A66
:101010001A603F4B00225A603D4B00229A603C4BC5
:101020000022DA603A4B01221A61394B04225A61DC
:10103000374B00221A76364B00225A76344B002268
:101040009A76334B0022DA76314BC222FF32DA61D4
:101050002F4B00221A622E4B2422002199542C4B34
:1010600001229A622A4B180000F04AFE031E01D0AA
:1010700000F0B4FA3B1D09221A603B1D8022520188
:101080005A603B1D802252059A603A1D204B110088
:10109000180000F075FF031E01D000F09FFA3B1D01
:1010A0000A221A603A1D1A4B1100180000F068FF5E
:1010B000031E01D000F092FA3B1D0B221A603A1D6C
:1010C000134B1100180000F05BFF031E01D000F06D
:1010D00085FA3B1D0C221A603A1D0D4B11001800B9
:1010E00000F04EFF031E01D000F078FA3B1D0D22E8
:1010F0001A603A1D064B1100180000F041FF031E54
:1011000001D000F06BFAC046BD4604B080BDC046B9
:10111000400700200024014080B500AF1B4B1C4A53
:101120001A601A4B1B4A5A60184B00229A60174BE0
:101130000122DA60154B00221A61144B00225A6119
:10114000124B00229A61114B0022DA610F4B0022F0
:101150001A620E4B180001F035FB031E01D000F09F
:101160003DFA0A4B0021180002F076F8031E01D068
:1011700000F034FA054B0021180002F0B9F8031E04
:1011800001D000F02BFAC046BD4680BDC40500204A
:10119000005400405D3E302080B500AF1B4B1C4A20
:1011A0001A601A4B822252005A60184B00229A6031
:1011B000164BC0229200DA60144B00221A61134BC6
:1011C00000225A61114B8022D2029A610F4B0822F1
:1011D000DA610E4B00221A620C4B00225A620B4B52
:1011E00000229A62094B0722DA62084B00221A6336
:1011F000064B08225A63054B180002F017FE031E27
:1012000001D000F0EBF9C046BD4680BDDC060020F1
:101210000030014080B500AF0D4B0E4A1A600C4BF8
:1012200030225A600A4B00229A60094BFA2292003F
:10123000DA60074B80229A61054B180002F0AEFE7F
:10124000031E01D000F0CAF9C046BD4680BDC046AD
:10125000940600200010004080B500AF0D4B0E4AF0
:101260001A600C4B0D4A5A600A4B00229A60094BD7
:10127000FA229200DA60074B80229A61054B18002F
:1012800002F08CFE031E01D000F0A8F9C046BD4656
:1012900080BDC046800700200014004080BB0000D5
:1012A00080B500AF184B194A1A60174BE122520261
:1012B0005A60154B00229A60134B0022DA60124BE1
:1012C00000221A61104B0C225A610F4B00229A61C6
:1012D0000D4B0022DA610C4B00221A620A4B2822C5
:1012E0005A62094B802212025A63074B80229201F4
:1012F000DA63054B180003F0B1F8031E01D000F0CB
:101300006DF9C046BD4680BD100600200038014082
:1013100080B500AF144B154A1A60134B9622920108
:101320005A60114B00229A600F4B0022DA600E4B7C
:1013300000221A610C4B0C225A610B4B00229A615D
:10134000094B0022DA61084B00221A62064B002288
:101350005A62054B180003F081F8031E01D000F01B
:101360003DF9C046BD4680BD400500200048004014
:1013700090B58BB000AF14243B19180014231A0049
:10138000002104F038F8804B5A697F4B8021090313
:101390000A435A617C4B5A6980231B0313403B610B
:1013A0003B69794B5A69784B8021C9030A435A61DA
:1013B000754B5A698023DB031340FB60FB68724B5B
:1013C0005A69714B802189020A435A616E4B5A69EE
:1013D00080239B021340BB60BB686B4B5A696A4B0E
:1013E0008021C9020A435A61674B5A698023DB0294
:1013F00013407B607B68644B5A69634B80214903CF
:101400000A435A61604B5A6980235B0313403B6077
:101410003B685E495E4B0022180001F090F95D497F
:101420005D4B0022180001F08AF9802319029023F5
:10143000DB050022180001F082F9584B002204213C
:10144000180001F07CF93B19902292011A603B19B7
:1014500000225A603B1901229A603B194C4A19003C
:10146000100000F0DFFF3B19484A1A603B190122C7
:101470005A603B1900229A603B190022DA603B193E
:10148000434A1900100000F0CDFF3B190F221A60EB
:101490003B1900225A603B1901229A603A199023A5
:1014A000DB051100180000F0BDFF21007B180122B0
:1014B0001A607B1801225A607B1801229A607B18FF
:1014C0000022DA600C007B18334A1900100000F08B
:1014D000A9FF21007B1804221A607B18882252037E
:1014E0005A607B1801229A600C007B182A4A190066
:1014F000100000F097FF21007B18294A1A607B1822
:1015000001225A607B1800229A607B180022DA6060
:101510000C007B18204A1900100000F083FF210006
:101520007B18802212021A607B1801225A607B18F5
:1015300000229A607B180022DA600C007A1890234F
:10154000DB051100180000F06DFF21007B1804225C
:101550001A607B1801225A607B1800229A607B185F
:101560000022DA607B180D4A1900100000F05AFFC3
:1015700000220021062000F0A5FE062000F0B7FEA4
:10158000C046BD460BB090BD001002404058000060
:101590000008004839F8000000040048000C00482A
:1015A00038F8000080B500AF0A4B1B78002B04D040
:1015B000FFF7DCF8074B00221A70074B1B78002B53
:1015C00004D0FFF7C5F9044B00221A70C046BD468F
:1015D00080BDC04604030020DB02002080B500AFC0
:1015E00072B6FEE780B582B000AF0F4B9A690E4B22
:1015F00001210A439A610C4B9B69012213407B60D5
:101600007B68094BDA69084B802149050A43DA6196
:10161000054BDA6980235B0513403B603B68C0469D
:10162000BD4602B080BDC0460010024090B58BB0F0
:1016300000AF78601423FB18180014231A0000214F
:1016400003F0D9FE7B681B68284A93424AD1284B95
:101650009A69274B802189000A439A61244B9A6931
:1016600080239B0013403B613B69214B5A69204B0F
:10167000802109030A435A611D4B5A6980231B03C9
:101680001340FB60FB681A4B5A69194B8021C90251
:101690000A435A61164B5A698023DB021340BB6030
:1016A000BB6814217B180F221A607B1803225A6032
:1016B0007B1800229A600C007B180E4A190010005B
:1016C00000F0B0FE21007B1802221A607B18032272
:1016D0005A607B1800229A607B18074A1900100094
:1016E00000F0A0FEC046BD460BB090BD00240140F6
:1016F00000100240000800480004004880B58AB08D
:1017000000AF78601423FB18180014231A0000217E
:1017100003F071FE7B681B681C4A934232D11C4B5C
:101720005A691B4B8021C9020A435A61184B5A69F6
:101730008023DB0213403B613B6914217B18C022EC
:1017400092001A607B1812225A607B1800229A605D
:101750007B180322DA607B1801221A617B180D4A7C
:101760001900100000F05EFE094BDA69084B802179
:1017700089030A43DA61064BDA6980239B0313402D
:10178000FB60FB68C046BD460AB080BD0054004007
:10179000001002400004004880B58AB000AF7860B5
:1017A0001423FB18180014231A00002103F023FE51
:1017B0007B681B681C4A934232D11C4B9A691B4BB5
:1017C000802149010A439A61184B9A6980235B0181
:1017D00013403B613B69154B5A69144B80218902C8
:1017E0000A435A61114B5A6980239B021340FB60E4
:1017F000FB6814217B18F0221A607B1802225A60C1
:101800007B1800229A607B180322DA607B18002282
:101810001A617A189023DB051100180000F002FE0F
:10182000C046BD460AB080BD0030014000100240F5
:1018300080B584B000AF78607B681B681A4A934219
:1018400014D11A4BDA69194B10210A43DA61174B8C
:10185000DB6910221340FB60FB680022002111208D
:1018600000F030FD112000F042FD18E07B681B689D
:101870000F4A934213D10D4BDA690C4B20210A43D6
:10188000DA610A4BDB6920221340BB60BB6800228F
:101890000021122000F016FD122000F028FDC046A5
:1018A000BD4604B080BDC04600100040001002409C
:1018B0000014004080B58CB000AF78601C23FB188A
:1018C000180014231A00002103F095FD7B681B68A3
:1018D000414A93423CD1414B9A69404B8021C90116
:1018E0000A439A613D4B9A698023DB011340BB6137
:1018F000BB693A4B5A69394B802189020A435A61C4
:10190000364B5A6980239B0213407B617B691C2103
:101910007B18C022D2001A607B1802225A607B1802
:1019200000229A607B180322DA607B1801221A6178
:101930007A189023DB051100180000F073FD0022D7
:1019400000211B2000F0BEFC1B2000F0D0FC3EE07C
:101950007B681B68224A934239D1204BDA691F4BBE
:101960008021C9020A43DA611C4BDA698023DB0259
:1019700013403B613B69194B5A69184B802109039D
:101980000A435A61154B5A6980231B031340FB60BD
:10199000FB681C217B1830221A607B1802225A60D7
:1019A0007B1800229A607B180322DA607B180122E0
:1019B0001A617B180B4A1900100000F033FD002259
:1019C00000211D2000F07EFC1D2000F090FCC04690
:1019D000BD460CB080BDC04600380140001002403A
:1019E000004800400008004880B500AFFEE780B521
:1019F00000AFFEE780B500AFC046BD4680BD80B5F4
:101A000000AFC046BD4680BD80B500AF00F05CF9B8
:101A1000C046BD4680BD80B500AF042000F0ACFEDE
:101A2000C046BD4680BD000080B500AF064B180023
:101A300002F050FB054B1B780133DAB2034B1A70EE
:101A4000C046BD4680BDC046940600200403002069
:101A500080B500AF064B180002F03CFB054B1B782D
:101A60000133DAB2034B1A70C046BD4680BDC04692
:101A700080070020DB02002080B500AF264BDB6929
:101A80002022134025D0244B9B8C98B2234B1B88DB
:101A90005A1C91B2214A11801900C2B21F4B5B1827
:101AA0005A731E4B1B887F2B0FD91C4A9023FF3380
:101AB000D35C0133D9B2194A9023FF33D154174B69
:101AC0001B88013B9AB2154B1A80154B1A88134B91
:101AD0005A80114BDB69082213400BD00E4B1A6A57
:101AE0000D4B08210A431A620B4B9B8C9BB2DAB256
:101AF0000A4B5A73084BDB690222134005D0064B90
:101B00001A6A054B02210A431A62064B180002F0BA
:101B1000A3FDC046BD4680BD003801402001002025
:101B2000BC0400201006002080B500AF264BDB6906
:101B30002022134025D0244B9B8C98B2234B1B882A
:101B40005A1C91B2214A11801900C2B21F4B5B1876
:101B50005A731E4B1B887F2B0FD91C4A9023FF33CF
:101B6000D35C0133D9B2194A9023FF33D154174BB8
:101B70001B88013B9AB2154B1A80154B1A88134BE0
:101B80005A80114BDB69082213400BD00E4B1A6AA6
:101B90000D4B08210A431A620B4B9B8C9BB2DAB2A5
:101BA0000A4B5A73084BDB690222134005D0064BDF
:101BB0001A6A054B02210A431A62064B180002F00A
:101BC0004BFDC046BD4680BD004800402C030020B0
:101BD000BC0400204005002080B500AFC046BD46D3
:101BE00080BD00000D4885460D480E490E4A002371
:101BF00002E0D458C4500433C4188C42F9D30B4AC1
:101C00000B4C002301E013600432A242FBD3FFF728
:101C1000E3FF03F0A1FBFFF75BF9FEE700400020C4
:101C2000000000200C000020685600080C00002076
:101C3000CC070020FEE7000080B500AF074B1A6814
:101C4000064B10210A431A60032000F009F8FFF741
:101C5000C9FC00231800BD4680BDC04600200240DC
:101C600090B583B000AF7860144B1C68144B1B78A0
:101C70001900FA239800FEF74FFA0300190020001C
:101C8000FEF74AFA0300180000F041FB031E01D0E2
:101C900001230FE07B68032B0BD8796801235B429B
:101CA0000022180000F00EFB064B7A681A60002331
:101CB00000E001231800BD4603B090BD00000020E5
:101CC000080000200400002080B500AF054B1B7801
:101CD0001A00054B1B68D218034B1A60C046BD465C
:101CE00080BDC04608000020C807002080B500AFB6
:101CF000024B1B681800BD4680BDC046C8070020C7
:101D000080B584B000AF78600F23FB1800221A70F2
:101D10000023BB607B68002B01D1012325E17B6898
:101D20009B6B002B0AD17B680022DA637B6834222C
:101D3000002199547B681800FFF778FC7B689B6B47
:101D40001022134000D003E10F23FB181B78002B57
:101D500000D0FDE07B681B689B680422134000D024
:101D6000F6E07B689B6B834A134002221A437B6830
:101D70009A637B681B689B6803221340012B12D176
:101D80007B681B681B6801221340012B09D07B680C
:101D90001B68DA6880231B021A4080231B029A42C8
:101DA00001D1012300E00023002B16D17B681B68C2
:101DB000DB681822934319007B689A687B681B686C
:101DC0000A43DA607B681B681B699B0099087B6883
:101DD0005A687B681B680A431A617B681B68DA686B
:101DE0007B681B6864490A40DA607B681B7E9A0343
:101DF0007B685B7EDB031A437B689B7E5B031A4335
:101E00007B689B6A012B02D080235B0100E00023EA
:101E10001A437B68DB681A437B681B69022B01D17C
:101E2000042300E000231A437B6824215B5C5B00F1
:101E30001343BA681343BB607B68DB7E012B15D16B
:101E40007B689B7E002B05D1BB6880225202134326
:101E5000BB600BE07B689B6B20221A437B689A6314
:101E60007B68DB6B01221A437B68DA637B68DA6983
:101E7000C223FF339A4207D07B68DA697B681B6A0A
:101E80001343BA681343BB607B681B68D9687B68DF
:101E90001B68BA680A43DA607B68DA6A80235B05EC
:101EA0009A421BD07B68DB6A012B17D07B68DB6A08
:101EB000022B13D07B68DB6A032B0FD07B68DB6AB5
:101EC000042B0BD07B68DB6A052B07D07B68DB6AB1
:101ED000062B03D07B68DB6A072B12D17B681B685B
:101EE0005A697B681B6807218A435A617B681B68B3
:101EF00059697B68DB6A07221A407B681B680A43C2
:101F00005A617B681B68DB681C4A1340BA689A42B6
:101F10000BD17B680022DA637B689B6B03229343BF
:101F200001221A437B689A631CE07B689B6B122238
:101F3000934310221A437B689A637B68DB6B012210
:101F40001A437B68DA630F23FB1801221A7009E039
:101F50007B689B6B10221A437B689A630F23FB18E4
:101F600001221A700F23FB181B781800BD4604B01D
:101F700080BDC046FDFEFFFF1902FEFFE7FF3F8365
:101F800080B584B000AF786039600F23FB18002261
:101F90001A700023BB607B68DA6A80235B059A4273
:101FA00011D07B68DB6A012B0DD07B68DB6A022BCA
:101FB00009D07B68DB6A032B05D07B68DB6A042BC6
:101FC00001D07B68DB6A7B6834229B5C012B01D1EA
:101FD0000223BBE07B683422012199547B681B6893
:101FE0009B680422134000D09FE03B685B68594A1D
:101FF000934200D177E07B681B68996A3B681B6855
:1020000001229A407B681B680A439A627B68DA6AFD
:1020100080235B059A4237D07B68DB6A012B33D083
:102020007B68DB6A022B2FD07B68DB6A032B2BD00B
:102030007B68DB6A042B27D07B68DB6A052B23D007
:102040007B68DB6A062B1FD07B68DB6A072B1BD003
:102050003B689A687B681B685B6907210B409A4262
:1020600012D07B681B685A697B681B6807218A430A
:102070005A617B681B6859693B689B6807221A4054
:102080007B681B680A435A613B681B68102B03D0AE
:102090003B681B68112B52D12F4B19683B681B689A
:1020A000102B02D180231B0401E08023DB032A4A8A
:1020B0000B4313603B681B68102B40D1274B1B68F8
:1020C00027491800FEF728F803001A0013009B00A8
:1020D0009B185B00BB6002E0BB68013BBB60BB6858
:1020E000002BF9D12BE07B681B689A6A3B681B6860
:1020F000012199400B00D9437B681B680A409A6212
:102100003B681B68102B03D03B681B68112B16D152
:10211000114B19683B681B68102B01D1114A00E074
:10212000114A0D4B0A401A6009E07B689B6B202224
:102130001A437B689A630F23FB1801221A707B688D
:102140003422002199540F23FB181B781800BD4638
:1021500004B080BD011000000827014000000020ED
:1021600040420F00FFFF7FFFFFFFBFFF80B582B03F
:1021700000AF0200FB1D1A70FB1D1B787F2B09D8D6
:10218000FB1D1B781A001F231A40044B01219140AC
:102190000A001A60C046BD4602B080BD00E100E002
:1021A00090B583B000AF02003960FB1D1A70FB1DB3
:1021B0001B787F2B28D82F4AFB1D1B785BB29B080E
:1021C000C0339B009B58FA1D1278110003220A406D
:1021D000D200FF2191400A00D2431A4011003B680F
:1021E0009B01FF221A40FB1D1B78180003230340AC
:1021F000DB009A401F48FB1D1B785BB29B080A431B
:10220000C0339B001A5031E01B4AFB1D1B7819009C
:102210000F230B40083B9B0806339B00D318043365
:102220001B68FA1D1278110003220A40D200FF2118
:1022300091400A00D2431A4011003B689B01FF22E3
:102240001A40FB1D1B78180003230340DB009A4053
:102250000948FB1D1B781C000F232340083B9B08EB
:102260000A4306339B00C31804331A60C046BD46B8
:1022700003B090BD00E100E000ED00E080B582B069
:1022800000AF78607B68013B0C4A934201D901237F
:1022900010E00B4B7A68013A5A6001235B4203213C
:1022A0001800FFF77DFF064B00229A60044B0722BF
:1022B0001A6000231800BD4602B080BDFFFFFF007A
:1022C00010E000E080B584B000AFB9607A600F2103
:1022D0007B18021C1A70BA687B181B785BB211005D
:1022E0001800FFF75DFFC046BD4604B080BD80B555
:1022F00082B000AF0200FB1D1A70FB1D1B785BB2A1
:102300001800FFF733FFC046BD4602B080BD80B560
:1023100082B000AF78607B681800FFF7AFFF030062
:102320001800BD4602B080BD80B582B000AF7860B5
:102330007B6821229B5CDBB2022B08D07B680422E5
:102340009A637B68202200219954012320E07B6856
:102350001B681A687B681B680E218A431A607B68B9
:102360001B681A687B681B6801218A431A607B68B6
:102370001A6C7B68DB6B012191400A005A607B6814
:102380002122012199547B682022002199540023A5
:102390001800BD4602B080BD80B584B000AF786043
:1023A0000F23FB1800221A707B6821229B5CDBB292
:1023B000022B07D07B6804229A630F23FB180122AB
:1023C0001A7028E07B681B681A687B681B680E21FE
:1023D0008A431A607B681B681A687B681B68012146
:1023E0008A431A607B681A6C7B68DB6B0121914021
:1023F0000A005A607B682122012199547B682022BF
:10240000002199547B685B6B002B04D07B685B6B6D
:102410007A68100098470F23FB181B781800BD46F8
:1024200004B080BD80B586B000AF7860396000230D
:102430007B614FE13B681B6801217A6991400A008A
:102440001340FB60FB68002B00D140E13B685B68F8
:1024500003221340012B05D03B685B680322134025
:10246000022B30D17B689B683B617B695B00032258
:102470009A401300DA433B6913403B613B68DA68DA
:102480007B695B009A4013003A6913433B617B68A8
:102490003A699A607B685B683B6101227B699A407C
:1024A0001300DA433B6913403B613B685B681B09DF
:1024B00001221A407B699A4013003A6913433B6139
:1024C0007B683A695A603B685B6803221340032BC0
:1024D00017D07B68DB683B617B695B0003229A4015
:1024E0001300DA433B6913403B613B689A687B69A0
:1024F0005B009A4013003A6913433B617B683A6979
:10250000DA603B685B6803221340022B23D17B69AE
:10251000DA087B6808329200D3583B617B69072256
:1025200013409B000F229A401300DA433B6913408B
:102530003B613B681A697B6907210B409B009A400D
:1025400013003A6913433B617B69DA087B68083200
:1025500092003969D1507B681B683B617B695B00E5
:1025600003229A401300DA433B6913403B613B6806
:102570005B6803221A407B695B009A4013003A694A
:1025800013433B617B683A691A603B685A68C02311
:102590009B02134000D19AE0544B9A69534B01219E
:1025A0000A439A61514B9B6901221340BB60BB688F
:1025B0004F4A7B699B0802339B009B583B617B69B8
:1025C000032213409B000F229A401300DA433B6919
:1025D00013403B617A689023DB059A4213D07B68F5
:1025E000444A93420DD07B68434A934207D07B68AC
:1025F000424A934201D1032306E0052304E002236B
:1026000002E0012300E000237A6903210A409200DE
:1026100093403A6913433B6135497B699B08023318
:102620009B003A695A50364B1B683B61FB68DA43A2
:102630003B6913403B613B685A6880235B0213404F
:1026400003D03A69FB6813433B612D4B3A691A602A
:102650002B4B5B683B61FB68DA433B6913403B6192
:102660003B685A6880239B02134003D03A69FB6899
:1026700013433B61224B3A695A60214B9B683B6193
:10268000FB68DA433B6913403B613B685A6880232F
:102690005B03134003D03A69FB6813433B61184B5B
:1026A0003A699A60164BDB683B61FB68DA433B6929
:1026B00013403B613B685A6880239B03134003D05F
:1026C0003A69FB6813433B610D4B3A69DA607B69F9
:1026D00001337B613B681A687B69DA40131E00D0C6
:1026E000A8E6C046BD4606B080BDC0460010024008
:1026F000000001400004004800080048000C0048A9
:102700000004014080B584B000AF78600A00BB1CB3
:102710001A807B681B69BA1C1288134004D00F23EF
:10272000FB1801221A7003E00F23FB1800221A7015
:102730000F23FB181B781800BD4604B080BD80B580
:1027400082B000AF786008001100BB1C021C1A8028
:102750007B1C0A1C1A707B1C1B78002B04D0BB1C32
:102760001A887B689A6103E0BB1C1A887B689A62AE
:10277000C046BD4602B080BD80B582B000AF020049
:10278000BB1D1A80094B5B69BA1D1288134008D023
:10279000064BBA1D12885A61BB1D1B88180000F039
:1027A00007F8C046BD4602B080BDC04600040140E7
:1027B00080B582B000AF0200BB1D1A80C046BD4686
:1027C00002B080BD80B582B000AF78607B68002B1E
:1027D00001D1012382E07B6841229B5CDBB2002BAC
:1027E00007D17B684022002199547B681800FEF7CE
:1027F00085FF7B684122242199547B681B681A68F5
:102800007B681B6801218A431A607B685A687B6871
:102810001B6834490A401A617B681B689A687B68A8
:102820001B6831490A409A607B68DB68012B08D13C
:102830007B689A687B681B68802109020A439A605A
:1028400007E07B689A687B681B68842109020A4359
:102850009A607B68DB68022B04D17B681B6880224E
:1028600012015A607B681B685A687B681B681F49A5
:102870000A435A607B681B68DA687B681B681A49E0
:102880000A40DA607B681A697B685B691A43110049
:102890007B689B691A027B681B680A43DA607B6865
:1028A000D9697B681A6A7B681B680A431A607B686F
:1028B0001B681A687B681B6801210A431A607B68E1
:1028C00000225A647B684122202199547B680022AF
:1028D0001A637B6842220021995400231800BD46E8
:1028E00002B080BDFFFFFFF0FF7FFFFF008000020E
:1028F00090B589B002AFF8600C00100019000A23EF
:10290000FB18221C1A800823FB18021C1A80BB1D0E
:102910000A1C1A80FB6841229B5CDBB2202B00D092
:102920000CE1BB6A002B04D02C23FB181B88002B66
:1029300005D1FB68802292005A640123FFE0FB6806
:1029400040229B5C012B01D10223F8E0FB6840226E
:1029500001219954FFF7CAF903007B618023190212
:10296000F8687B6900931923012200F00BFB031E1A
:1029700001D00123E3E0FB68412221219954FB6847
:10298000422240219954FB6800225A64FB68BA6ACB
:102990005A62FB682C22BA1812885A85FB680022FA
:1029A0005A63BB1D1C880823FB181A880A23FB18CE
:1029B0001988F8687B6901933B6B0093230000F052
:1029C000F9F9031E05D0FB68402200219954012328
:1029D000B5E0FB685B8D9BB2FF2B11D9FB68FF2232
:1029E0001A85FB681B8DDAB280235C040A23FB186E
:1029F0001988F86800230093230000F0F7FB12E029
:102A0000FB685B8D9AB2FB681A85FB681B8DDAB296
:102A100080239C040A23FB181988F868002300937C
:102A2000230000F0E3FB7A69396BFB68180000F0C3
:102A3000E8FA031E01D0012381E0FB685B6A1A7883
:102A4000FB681B689A62FB685B6A5A1CFB685A62E7
:102A5000FB685B8D9BB2013B9AB2FB685A85FB68B1
:102A60001B8D013B9AB2FB681A85FB685B8D9BB29C
:102A7000002B3AD0FB681B8D002B36D13A6BF868DF
:102A80007B69009313000022802100F07BFA031E73
:102A900001D0012353E0FB685B8D9BB2FF2B11D962
:102AA000FB68FF221A85FB681B8DDAB280235C0469
:102AB0000A23FB181988F86800230093230000F00C
:102AC00095FB12E0FB685B8D9AB2FB681A85FB6888
:102AD0001B8DDAB280239C040A23FB181988F8683E
:102AE00000230093230000F081FBFB685B8D9BB209
:102AF000002B98D17A69396BFB68180000F0C0FA96
:102B0000031E01D001231AE0FB681B682022DA6152
:102B1000FB681B685A68FB681B680B490A405A60CF
:102B2000FB68412220219954FB68422200219954DC
:102B3000FB68402200219954002300E00223180082
:102B4000BD4607B090BDC04600E800FE90B589B014
:102B500002AFF8600C00100019000A23FB18221CB9
:102B60001A800823FB18021C1A80BB1D0A1C1A803D
:102B7000FB6841229B5CDBB2202B00D010E1BB6ADA
:102B8000002B04D02C23FB181B88002B05D1FB68DD
:102B9000802292005A64012303E1FB6840229B5C7F
:102BA000012B01D10223FCE0FB6840220121995452
:102BB000FFF79CF803007B6180231902F8687B69AA
:102BC00000931923012200F0DDF9031E01D0012337
:102BD000E7E0FB68412222219954FB684222402110
:102BE0009954FB6800225A64FB68BA6A5A62FB680F
:102BF0002C22BA1812885A85FB6800225A63BB1D22
:102C00001C880823FB181A880A23FB181988F868FF
:102C10007B6901933B6B0093230000F02FF9031EA7
:102C200005D0FB684022002199540123B9E0FB68DC
:102C30005B8D9BB2FF2B11D9FB68FF221A85FB68C5
:102C40001B8DDAB280235C040A23FB181988F8680C
:102C5000564B0093230000F0C9FA12E0FB685B8D2D
:102C60009AB2FB681A85FB681B8DDAB280239C043C
:102C70000A23FB181988F8684C4B0093230000F0D6
:102C8000B5FA3A6BF8687B690093130000220421BF
:102C900000F078F9031E01D0012382E0FB681B6875
:102CA0005A6AFB685B6AD2B21A70FB685B6A5A1C8C
:102CB000FB685A62FB681B8D013B9AB2FB681A8560
:102CC000FB685B8D9BB2013B9AB2FB685A85FB683F
:102CD0005B8D9BB2002B3AD0FB681B8D002B36D14D
:102CE0003A6BF8687B69009313000022802100F0A2
:102CF00049F9031E01D0012353E0FB685B8D9BB2B1
:102D0000FF2B11D9FB68FF221A85FB681B8DDAB2F5
:102D100080235C040A23FB181988F86800230093B9
:102D2000230000F063FA12E0FB685B8D9AB2FB6847
:102D30001A85FB681B8DDAB280239C040A23FB18DA
:102D40001988F86800230093230000F04FFAFB680D
:102D50005B8D9BB2002B94D17A69396BFB681800AC
:102D600000F08EF9031E01D001231AE0FB681B68F6
:102D70002022DA61FB681B685A68FB681B680C49F3
:102D80000A405A60FB68412220219954FB68422284
:102D900000219954FB68402200219954002300E04F
:102DA00002231800BD4607B090BDC0460024008035
:102DB00000E800FEB0B586B002AFF8600C0010006D
:102DC00019000A257B19221C1A800823FB18021CF3
:102DD0001A80BB1D0A1C1A80BB1D1B88DAB2802317
:102DE0005C047B191988F868234B0093230000F0DA
:102DF000FDF97A6A396AFB68180000F002F9031ECF
:102E000001D0012333E0BB1D1B88012B07D1082310
:102E1000FB181B88DAB2FB681B689A6219E008236A
:102E2000FB181B881B0A9BB2DAB2FB681B689A620C
:102E30007A6A396AFB68180000F0E3F8031E01D0D3
:102E4000012314E00823FB181B88DAB2FB681B6817
:102E50009A623A6AF8687B6A009313000022802124
:102E600000F090F8031E01D0012300E000231800B9
:102E7000BD4604B0B0BDC04600200080B0B586B0ED
:102E800002AFF8600C00100019000A257B19221C03
:102E90001A800823FB18021C1A80BB1D0A1C1A800A
:102EA000BB1D1B88DAB27B191988F868234B009385
:102EB000002300F09BF97A6A396AFB68180000F079
:102EC000A0F8031E01D0012333E0BB1D1B88012B9A
:102ED00007D10823FB181B88DAB2FB681B689A62CB
:102EE00019E00823FB181B881B0A9BB2DAB2FB68A7
:102EF0001B689A627A6A396AFB68180000F081F8E8
:102F0000031E01D0012314E00823FB181B88DAB24A
:102F1000FB681B689A623A6AF8687B6A0093130040
:102F20000022402100F02EF8031E01D0012300E012
:102F300000231800BD4604B0B0BDC046002000808C
:102F400080B582B000AF78607B681B689B69022205
:102F50001340022B03D17B681B6800229A627B68B6
:102F60001B689B6901221340012B07D07B681B68FB
:102F70009A697B681B6801210A439A61C046BD4675
:102F800002B080BD80B584B000AFF860B9603B602E
:102F9000FB1D1A7021E03B6801331ED0FEF7A6FE30
:102FA0000200BB69D31A3A689A4202D33B68002BED
:102FB00013D1FB685B6C20221A43FB685A64FB68E0
:102FC000412220219954FB68422200219954FB6838
:102FD00040220021995401230FE0FB681B689B6984
:102FE000BA681340BA68D31A5A425341DBB21A0086
:102FF000FB1D1B789A42CED000231800BD4604B0BA
:1030000080BD80B584B000AFF860B9607A602BE015
:103010007A68B968FB68180000F06EF8031E01D0EA
:10302000012329E0BB6801331ED0FEF75FFE0200DA
:103030007B68D31ABA689A4202D3BB68002B13D1BB
:10304000FB685B6C20221A43FB685A64FB684122D0
:1030500020219954FB68422200219954FB684022A8
:1030600000219954012307E0FB681B689B69022239
:103070001340022BCCD100231800BD4604B080BD04
:1030800080B584B000AFF860B9607A6028E07A68F3
:10309000B968FB68180000F02FF8031E01D0012367
:1030A00026E0FEF723FE02007B68D31ABA689A4234
:1030B00002D3BB68002B13D1FB685B6C20221A4340
:1030C000FB685A64FB68412220219954FB68422224
:1030D00000219954FB68402200219954012307E004
:1030E000FB681B689B6920221340202BCFD1002353
:1030F0001800BD4604B080BD80B584B000AFF86054
:10310000B9607A60FB681B689B6910221340102B22
:1031100064D1FB681B685A6880239B041A40802393
:103120009B049A422BD0FB681B685A68FB681B689B
:103130008021C9010A435A6021E0BB6801331ED0D7
:10314000FEF7D4FD02007B68D31ABA689A4202D314
:10315000BB68002B13D1FB685B6C20221A43FB6811
:103160005A64FB68412220219954FB6842220021C5
:103170009954FB6840220021995401232FE0FB68F9
:103180001B689B6920221340202BD6D1FB681B684B
:103190001022DA61FB681B682022DA61FB681800E4
:1031A000FFF7CEFEFB681B685A68FB681B680E4978
:1031B0000A405A60FB685B6C04221A43FB685A643D
:1031C000FB68412220219954FB6842220021995436
:1031D000FB68402200219954012300E000231800DD
:1031E000BD4604B080BDC04600E800FE90B585B085
:1031F00000AFF860080011007B600A243B19021C34
:103200001A8009203B180A1C1A70FB681B685B684F
:103210003A6A510D8022D2000A400E490A43D24335
:103220001A4011003B191B889B059A0D3B181B780F
:103230001804FF231B0403401A437B681A433B6AAC
:103240001A43FB681B680A435A60C046BD4605B076
:1032500090BDC046FF63FF0380B582B000AF7860C9
:1032600039607B6841229B5CDBB2202B38D17B68C4
:1032700040229B5C012B01D1022332E07B6840227B
:10328000012199547B684122242199547B681B6851
:103290001A687B681B6801218A431A607B681B6877
:1032A0001A687B681B6811490A401A607B681B68B2
:1032B00019687B681B683A680A431A607B681B6858
:1032C0001A687B681B6801210A431A607B684122E7
:1032D000202199547B68402200219954002300E06A
:1032E00002231800BD4602B080BDC046FFEFFFFFBD
:1032F00080B584B000AF786039607B6841229B5C08
:10330000DBB2202B39D17B6840229B5C012B01D1A1
:10331000022333E07B684022012199547B684122DB
:10332000242199547B681B681A687B681B680121FB
:103330008A431A607B681B681B68FB60FB68114A44
:103340001340FB603B681B02FA681343FB607B6819
:103350001B68FA681A607B681B681A687B681B68C0
:1033600001210A431A607B684122202199547B681D
:10337000402200219954002300E002231800BD469A
:1033800004B080BDFFF0FFFF80B588B000AF78606B
:103390007B68002B01D1012305E37B681B680122B8
:1033A000134000D18DE0C54B5B680C221340042B09
:1033B0000ED0C24B5B680C221340082B16D1BF4BBA
:1033C0005A68C0235B021A4080235B029A420DD1E7
:1033D000BA4B1A6880239B02134000D170E07B68CF
:1033E0005B68002B00D06BE00123DCE27B685B684C
:1033F000012B07D1B14B1A68B04B802149020A4317
:103400001A602FE07B685B68002B0CD1AB4B1A680D
:10341000AA4BAB490A401A60A84B1A68A74BA949A6
:103420000A401A601EE07B685B68052B0ED1A34B37
:103430001A68A24B8021C9020A431A609F4B1A687E
:103440009E4B802149020A431A600BE09B4B1A688D
:103450009A4B9B490A401A60984B1A68974B9949B6
:103460000A401A607B685B68002B14D0FEF73EFCB4
:103470000300BB6108E0FEF739FC0200BB69D31A08
:10348000642B01D903238EE28C4B1A6880239B02A4
:103490001340F0D015E0FEF729FC0300BB6108E003
:1034A000FEF724FC0200BB69D31A642B01D9032365
:1034B00079E2824B1A6880239B021340F0D100E02E
:1034C000C0467B681B680222134000D16CE07B4B36
:1034D0005B680C2213400ED0784B5B680C221340C3
:1034E000082B1FD1754B5A68C0235B021A408023FA
:1034F0001B029A4216D1714B1B680222134005D061
:103500007B68DB68012B01D001234CE26B4B1B680D
:10351000F822934319007B681B69DA00674B0A4362
:103520001A6041E07B68DB68002B24D0634B1A688B
:10353000624B01210A431A60FEF7D8FB0300BB610E
:1035400008E0FEF7D3FB0200BB69D31A022B01D9B6
:10355000032328E2594B1B6802221340F1D0574B3A
:103560001B68F822934319007B681B69DA00534BF0
:103570000A431A6018E0514B1A68504B01218A43E4
:103580001A60FEF7B3FB0300BB6108E0FEF7AEFB79
:103590000200BB69D31A022B01D9032303E2474B74
:1035A0001B6802221340F1D17B681B68082213407C
:1035B00036D07B68DB69002B19D0404B5A6A3F4BF1
:1035C00001210A435A62FEF791FB0300BB6108E048
:1035D000FEF78CFB0200BB69D31A022B01D903232F
:1035E000E1E1364B5B6A02221340F1D018E0334B25
:1035F0005A6A324B01218A435A62FEF777FB030075
:10360000BB6108E0FEF772FB0200BB69D31A022B14
:1036100001D90323C7E1294B5B6A02221340F1D190
:103620007B681B680422134000D1B5E01F23FB1800
:1036300000221A70214BDA6980235B05134011D1F7
:103640001E4BDA691D4B802149050A43DA611B4B89
:10365000DA6980235B051340FB60FB681F23FB18BE
:1036600001221A70184B1A6880235B0013401AD18C
:10367000154B1A68144B802149000A431A60FEF763
:1036800035FB0300BB6108E0FEF730FB0200BB69BD
:10369000D31A642B01D9032385E10B4B1A688023CD
:1036A0005B001340F0D07B689B68012B0ED1034B6D
:1036B0001A6A024B01210A431A6235E000100240E7
:1036C000FFFFFEFFFFFFFBFF007000407B689B6871
:1036D000002B0CD1B64B1A6AB54B01218A431A62F2
:1036E000B34B1A6AB24B04218A431A621CE07B680E
:1036F0009B68052B0CD1AE4B1A6AAD4B04210A43D3
:103700001A62AB4B1A6AAA4B01210A431A620BE0F8
:10371000A74B1A6AA64B01218A431A62A44B1A6A64
:10372000A34B04218A431A627B689B68002B14D048
:10373000FEF7DCFA0300BB6109E0FEF7D7FA0200EE
:10374000BB69D31A9B4A934201D903232BE1984BBF
:103750001B6A02221340F0D013E0FEF7C7FA030001
:10376000BB6109E0FEF7C2FA0200BB69D31A914AB5
:10377000934201D9032316E18D4B1B6A02221340A9
:10378000F0D11F23FB181B78012B05D1884BDA6978
:10379000874B89490A40DA617B681B681022134015
:1037A00063D07B685B69012B2AD1814B5A6B804BBC
:1037B00004210A435A637E4B5A6B7D4B01210A4315
:1037C0005A63FEF793FA0300BB6108E0FEF78EFA36
:1037D0000200BB69D31A022B01D90323E3E0744B27
:1037E0005B6B02221340F1D0714B5B6BF822934369
:1037F00019007B689B69DA006D4B0A435A6334E019
:103800007B685B69053311D1694B5A6B684B0421A6
:103810008A435A63664B5B6BF822934319007B68BB
:103820009B69DA00624B0A435A631EE0604B5A6B95
:103830005F4B04210A435A635D4B5A6B5C4B012179
:103840008A435A63FEF752FA0300BB6108E0FEF7B1
:103850004DFA0200BB69D31A022B01D90323A2E05F
:10386000534B5B6B02221340F1D17B681B6A002B28
:1038700000D197E04E4B5B680C221340082B00D11F
:103880006BE07B681B6A022B4CD1494B1A68484B92
:103890004A490A401A60FEF729FA0300BB6108E0B2
:1038A000FEF724FA0200BB69D31A022B01D90323C5
:1038B00079E03F4B1A6880239B041340F0D13C4BC6
:1038C000DB6A0F22934319007B68DA6A384B0A439C
:1038D000DA62374B5B683A4A134019007B689A6A90
:1038E0007B685B6A1A43324B0A435A60304B1A6852
:1038F0002F4B802149040A431A60FEF7F7F90300B1
:10390000BB6108E0FEF7F2F90200BB69D31A022B93
:1039100001D9032347E0264B1A6880239B041340F8
:10392000F0D03FE0224B1A68214B24490A401A602C
:10393000FEF7DCF90300BB6108E0FEF7D7F90200EF
:10394000BB69D31A022B01D903232CE0184B1A6848
:1039500080239B041340F0D124E07B681B6A012B79
:1039600001D101231FE0124B5B687B61104BDB6AC6
:103970003B617A69C0235B021A407B685B6A9A42AA
:103980000ED13B690F221A407B68DB6A9A4207D14D
:103990007A69F0239B031A407B689B6A9A4201D0A4
:1039A000012300E000231800BD4608B080BDC046DA
:1039B0000010024088130000FFFFFFEFFFFFFFFE33
:1039C000FF7FC2FF80B584B000AF786039607B684C
:1039D000002B01D10123B3E05B4B1B680122134094
:1039E0003A689A4211D9584B1B6801229343190037
:1039F000554B3A680A431A60534B1B680122134027
:103A00003A689A4201D001239AE07B681B6802223F
:103A1000134015D07B681B680422134006D04B4B23
:103A20005A684A4BE021C9000A435A60474B5B6819
:103A3000F022934319007B689A68444B0A435A600A
:103A40007B681B680122134040D07B685B68012BB8
:103A500007D13E4B1A6880239B02134014D10123E7
:103A60006EE07B685B68022B07D1384B1A688023B5
:103A70009B04134008D1012362E0344B1B680222EF
:103A8000134001D101235BE0304B5B680322934379
:103A900019007B685A682D4B0A435A60FEF726F9D5
:103AA0000300FB6009E0FEF721F90200FB68D31A6E
:103AB000274A934201D9032342E0244B5B680C223E
:103AC0001A407B685B689B009A42ECD11E4B1B68D6
:103AD000012213403A689A4211D21B4B1B68012203
:103AE00093431900184B3A680A431A60164B1B6837
:103AF000012213403A689A4201D0012320E07B68FA
:103B00001B680422134009D0104B5B68114A134014
:103B100019007B68DA680D4B0A435A6000F020F800
:103B200001000A4B5B681B090F2213400A4AD35C51
:103B30000A00DA40094B1A600320FEF791F80023CF
:103B40001800BD4604B080BD0020024000100240B5
:103B500088130000FFF8FFFF205600080000002037
:103B600090B58FB000AF1423FB182C4A13CA13C3AF
:103B700012681A603B1D2A4A13CA13C312681A60DE
:103B80000023FB620023BB6200237B6300237B6274
:103B900000233B63234B5B68FB62FB6A0C221340F0
:103BA000042B02D0082B03D02FE01F4B3B632FE0E8
:103BB000FB6A9B0C0F2213401422BA18D35C7B6261
:103BC000184BDB6A0F2213403A1DD35CBB62FA6AC2
:103BD000C0235B021A4080235B029A4209D1B96A72
:103BE0001148FCF799FA03001A007B6A53437B6380
:103BF00008E0B96A0D48FCF78FFA03001A007B6AE7
:103C000053437B637B6B3B6302E0084B3B63C046E3
:103C10003B6B1800BD460FB090BDC046FC54000879
:103C20000C550008001002400024F40000127A0035
:103C300080B500AF024B1B681800BD4680BDC04672
:103C40000000002080B500AFFFF7F2FF0100064B37
:103C50005B681B0A07221340044AD35CD9400B005F
:103C60001800BD4680BDC046001002403056000816
:103C700080B586B000AF786000233B610023FB6015
:103C80007B681A6880235B02134000D18FE0172302
:103C9000FB1800221A705F4BDA6980235B05134022
:103CA00011D15C4BDA695B4B802149050A43DA612B
:103CB000584BDA6980235B051340BB60BB68172350
:103CC000FB1801221A70544B1A6880235B001340C2
:103CD0001AD1514B1A68504B802149000A431A608F
:103CE000FEF704F803003B6108E0FDF7FFFF020068
:103CF0003B69D31A642B01D9032387E0464B1A682A
:103D000080235B001340F0D0424B1A6AC0239B0013
:103D10001340FB60FB68002B34D07B685A68C023DB
:103D20009B001340FA689A422CD03A4B1B6A3B4ADC
:103D30001340FB60374B1A6A364B802149020A4315
:103D40001A62344B1A6A334B35490A401A62314BB6
:103D5000FA681A62FB680122134013D0FDF7C6FF10
:103D600003003B6109E0FDF7C1FF02003B69D31A84
:103D70002C4A934201D9032348E0264B1B6A0222B6
:103D80001340F0D0234B1B6A244A134019007B6870
:103D90005A68204B0A431A621723FB181B78012B21
:103DA00005D11C4BDA691B4B1F490A40DA617B685D
:103DB0001B680122134009D0164B1B6B032293434F
:103DC00019007B689A68134B0A431A637B681B6867
:103DD0002022134009D00F4B1B6B10229343190074
:103DE0007B68DA680B4B0A431A637B681A68802386
:103DF0009B02134009D0074B1B6B80229343190091
:103E00007B681A69034B0A431A6300231800BD46F6
:103E100006B080BD0010024000700040FFFCFFFFB4
:103E2000FFFFFEFF88130000FFFFFFEF80B584B0A7
:103E300000AF78607B68002B01D10123A8E07B688C
:103E40005B6A002B09D17B685A6882235B009A4227
:103E500009D07B680022DA6105E07B6800221A61E4
:103E60007B6800225A617B6800229A627B685D222F
:103E70009B5CDBB2002B07D17B685C22002199544C
:103E80007B681800FDF788FC7B685D22022199544D
:103E90007B681B681A687B681B6840218A431A602C
:103EA0007B68DA68E023DB009A4202D90023FB60DA
:103EB00002E080235B01FB607B68DA68F0231B0172
:103EC0009A4208D07B68DA68E023DB009A4202D08D
:103ED0007B6800229A627B685A6882235B001A40E2
:103EE0007B68996884231B020B401A437B681B691B
:103EF00002210B401A437B685B6901210B401A4386
:103F00007B68996980239B000B401A437B68DB69BF
:103F100038210B401A437B681B6A80210B401A43EF
:103F200011007B689A6A80239B011A407B681B689A
:103F30000A431A607B689B691B0C04221A407B6849
:103F40005B6A10210B401A437B685B6B08210B40B6
:103F50001A437B68D968F0231B010B401A431100F8
:103F6000FA6880235B011A407B681B680A435A6029
:103F70007B681B68DA697B681B6807490A40DA615D
:103F80007B6800221A667B685D2201219954002318
:103F90001800BD4604B080BDFFF7FFFF80B582B0BA
:103FA00000AF78607B68002B01D1012342E07B6881
:103FB0003D229B5CDBB2002B07D17B683C220021B9
:103FC00099547B681800FDF733FC7B683D22022181
:103FD00099547B681A687B6804331900100000F05C
:103FE000B7F97B684622012199547B683E22012162
:103FF00099547B683F22012199547B68402201211A
:1040000099547B684122012199547B684222012105
:1040100099547B684322012199547B6844220121F1
:1040200099547B684522012199547B683D220121E6
:10403000995400231800BD4602B080BD80B584B0FD
:1040400000AF78607B683D229B5CDBB2012B01D026
:10405000012335E07B683D22022199547B681B686F
:10406000DA687B681B6801210A43DA607B681B6899
:10407000154A934209D07B681B68144A934204D0C6
:104080007B681B68124A934211D17B681B689B684E
:1040900007221340FB60FB68062B10D07B681B686F
:1040A0001A687B681B6801210A431A6007E07B6875
:1040B0001B681A687B681B6801210A431A60002389
:1040C0001800BD4604B080BD002C01400004004033
:1040D0000040014080B582B000AF78607B681B680B
:1040E0001B6902221340022B24D17B681B68DB680A
:1040F00002221340022B1DD17B681B68032252420F
:104100001A617B6801221A777B681B689B6903220E
:10411000134004D07B68180000F002F907E07B68C8
:10412000180000F0F5F87B68180000F001F97B68D2
:1041300000221A777B681B681B6904221340042B3A
:1041400025D17B681B68DB6804221340042B1ED139
:104150007B681B68052252421A617B6802221A772B
:104160007B681B689A69C0239B00134004D07B685E
:10417000180000F0D5F807E07B68180000F0C8F8D8
:104180007B68180000F0D4F87B6800221A777B68FF
:104190001B681B6908221340082B24D17B681B680D
:1041A000DB6808221340082B1DD17B681B6809229D
:1041B00052421A617B6804221A777B681B68DB69AC
:1041C0000322134004D07B68180000F0A9F807E030
:1041D0007B68180000F09CF87B68180000F0A8F8D5
:1041E0007B6800221A777B681B681B6910221340CA
:1041F000102B25D17B681B68DB6810221340102B25
:104200001ED17B681B68112252421A617B6808220A
:104210001A777B681B68DA69C0239B00134004D0BF
:104220007B68180000F07CF807E07B68180000F05D
:104230006FF87B68180000F07BF87B6800221A7723
:104240007B681B681B6901221340012B0FD17B681F
:104250001B68DB6801221340012B08D17B681B68B7
:10426000022252421A617B68180000F049F87B680C
:104270001B681B6980221340802B0FD17B681B6851
:10428000DB6880221340802B08D17B681B68812269
:1042900052421A617B68180000F0D8F87B681B68EE
:1042A0001B6940221340402B0FD17B681B68DB68E1
:1042B00040221340402B08D17B681B6841225242A8
:1042C0001A617B68180000F03BF87B681B681B696B
:1042D00020221340202B0FD17B681B68DB68202233
:1042E0001340202B08D17B681B68212252421A619F
:1042F0007B68180000F0A2F8C046BD4602B080BD41
:1043000080B582B000AF7860C046BD4602B080BDC7
:1043100080B582B000AF7860C046BD4602B080BDB7
:1043200080B582B000AF7860C046BD4602B080BDA7
:1043300080B582B000AF7860C046BD4602B080BD97
:1043400080B582B000AF7860C046BD4602B080BD87
:1043500080B584B000AF786039607B681B68FB6013
:104360007B682F4A934203D07B682E4A934208D140
:10437000FB6870229343FB603B685B68FA681343F9
:10438000FB607B68264A934213D07B68254A9342A0
:104390000FD07B68244A93420BD07B68234A934218
:1043A00007D07B68224A934203D07B68214A93421C
:1043B00008D1FB68204A1340FB603B68DB68FA6861
:1043C0001343FB60FB68802293431A003B685B69E0
:1043D0001343FB607B68FA681A603B689A687B68E5
:1043E000DA623B681A687B689A627B680C4A93427F
:1043F0000BD07B680D4A934207D07B680C4A9342EE
:1044000003D07B680B4A934203D13B681A697B68EF
:104410001A637B6801225A61C046BD4604B080BD64
:10442000002C0140000400400020004000400140FA
:104430000044014000480140FFFCFFFF80B582B00E
:1044400000AF7860C046BD4602B080BD80B582B086
:1044500000AF7860C046BD4602B080BD80B582B076
:1044600000AF78607B68002B01D1012344E07B68BA
:104470009B6F002B07D17B687422002199547B68C5
:104480001800FDF717FA7B6824229A677B681B687F
:104490001A687B681B6801218A431A607B681800D0
:1044A00000F0AEFB0300012B01D1012324E07B6867
:1044B0005B6A002B03D07B68180000F0F7FC7B6878
:1044C0001B685A687B681B680D490A405A607B6804
:1044D0001B689A687B681B6808218A439A607B681E
:1044E0001B681A687B681B6801210A431A607B6895
:1044F000180000F08FFD03001800BD4602B080BD1B
:10450000FFF7FFFF80B58AB002AFF860B9603B608B
:10451000BB1D1A80FB689B6F202B00D096E0BB6808
:10452000002B03D0BB1D1B88002B01D101238EE083
:10453000FB689A6880235B019A4209D1FB681B697A
:10454000002B05D1BB680122134001D001237EE07E
:10455000FB6874229B5C012B01D1022377E0FB688E
:10456000742201219954FB68802200219950FB6834
:1045700021229A67FDF7BAFB03007B61FB68BA1D35
:10458000502112885A52FB68BA1D522112885A5281
:10459000FB689A6880235B019A4208D1FB681B691B
:1045A000002B04D10023FB61BB68BB6103E0BB6847
:1045B000FB610023BB61FB687422002199542DE04C
:1045C0007A69F8683B68009313000022802100F0AC
:1045D0006BFD031E01D0032339E0FB69002B0BD1D7
:1045E000BB691A88FB681B68D205D20D92B21A8586
:1045F000BB690233BB6108E0FB691A78FB681B6882
:1046000092B21A85FB690133FB61FB6852229B5A07
:104610009BB2013B99B2FB6852229952FB6852222D
:104620009B5A9BB2002BCBD17A69F8683B68009308
:1046300013000022402100F037FD031E01D00323A8
:1046400005E0FB6820229A67002300E0022318009F
:10465000BD4608B080BD000080B5AAB000AF78604C
:104660007B681B68DB69A422B9180B607B681B6838
:104670001B68A02179180B607B681B689B689C21D4
:1046800079180B60BB181B68994A13409822B91817
:104690000B60BB181B68002B16D1A423FB181B68EA
:1046A0002022134010D0A023FB181B6820221340A7
:1046B0000AD07B685B6E002B00D174E27B685B6E76
:1046C0007A68100098476EE29823FB181B68002B4D
:1046D00000D113E19C23FB181B680122134006D173
:1046E000A023FB181B68834A134000D106E1A423D2
:1046F000FB181B680122134012D0A023FB181A6874
:1047000080235B0013400BD07B681B6801221A6278
:104710007B6880229B5801221A437B6880215A5073
:10472000A423FB181B680222134011D09C23FB1802
:104730001B68012213400BD07B681B6802221A629F
:104740007B6880229B5804221A437B6880215A5040
:10475000A423FB181B680422134011D09C23FB18D0
:104760001B68012213400BD07B681B6804221A626D
:104770007B6880229B5802221A437B6880215A5012
:10478000A423FB181B680822134017D0A023FB1892
:104790001B682022134005D19C23FB181B680122B3
:1047A00013400BD07B681B6808221A627B6880224A
:1047B0009B5808221A437B6880215A50A423FB1877
:1047C0001A6880231B01134013D0A023FB181A681A
:1047D0008023DB0413400CD07B681B68802212010D
:1047E0001A627B6880229B5820221A437B688021B2
:1047F0005A507B6880229B58002B00D1D5E1A4231E
:10480000FB181B68202213400ED0A023FB181B6846
:104810002022134008D07B685B6E002B04D07B689D
:104820005B6E7A68100098477B6880229B589422C0
:10483000BA1813607B681B689B6840221340402BAA
:1048400005D09423FB181B682822134045D07B68B1
:10485000180000F0E5FC7B681B689B684022134051
:10486000402B35D1EFF310833B663B6E90203A1816
:10487000136001237B667B6E83F310887B681B6863
:104880009A687B681B6840218A439A603B181B68C2
:10489000BB66BB6E83F310887B681B6F002B12D046
:1048A0007B681B6F144A5A637B681B6F1800FDF707
:1048B00073FD031E1AD07B681B6F5A6B7B681B6FDE
:1048C0001800904712E07B68180000F085F90DE0B1
:1048D0007B68180000F080F908E07B68180000F0A1
:1048E0007BF97B688022002199505EE1C0465CE143
:1048F0000F08000020010004D95200087B681B6EDD
:10490000012B00D027E1A423FB181B6810221340C1
:1049100000D120E1A023FB181B681022134000D116
:1049200019E17B681B6810221A627B681B689B6810
:1049300040221340402B00D095E07B681B6F1B6822
:104940005A687E217B181A807B181B88002B00D1A7
:104950002DE17B6858229B5A7E22BA1812889A420F
:1049600000D324E17B687E22BA185A2112885A5259
:104970007B681B6F9B69202B66D0EFF310833B6332
:104980003B6BBB6701237B637B6B83F310887B6886
:104990001B681A687B681B6889490A401A60BB6FEC
:1049A000BB63BB6B83F31088EFF31083FB63FB6B7C
:1049B0007B6701233B643B6C83F310887B681B6837
:1049C0009A687B681B6801218A439A607B6F7B64CD
:1049D0007B6C83F31088EFF31083BB64BB6C3B6785
:1049E0000123FB64FB6C83F310887B681B689A6867
:1049F0007B681B6840218A439A603B6F3B653B6D37
:104A000083F310887B682022DA677B6800221A66AD
:104A1000EFF310837B657B6DFB660123BB65BB6D8C
:104A200083F310887B681B681A687B681B681021F9
:104A30008A431A60FB6EFB65FB6D83F310887B680D
:104A40001B6F1800FDF770FC7B6858229A5A7B6830
:104A50005A215B5A9BB2D31A9AB27B681100180094
:104A600000F0C2F8A3E07B685822995A7B685A226A
:104A70009B5A9AB28E23FB188A1A1A807B685A2294
:104A80009B5A9BB2002B00D193E08E23FB181B880E
:104A9000002B00D18DE0EFF31083FB60FB688820D2
:104AA0003A18136001233B613B6983F310887B68EC
:104AB0001B681A687B681B6842490A401A603B18E9
:104AC0001B687B617B6983F31088EFF31083BB6104
:104AD000BB6984203A1813600123FB61FB6983F3EF
:104AE00010887B681B689A687B681B6801218A4371
:104AF0009A603B181B683B623B6A83F310887B68B3
:104B00002022DA677B6800221A667B6800225A66D8
:104B1000EFF310837B627B6A80203A1813600123D5
:104B2000BB62BB6A83F310887B681B681A687B686A
:104B30001B6810218A431A603B181B68FB62FB6AE2
:104B400083F310888E23FB181A887B6811001800E5
:104B500000F04AF82DE0A423FB181B6880221340C4
:104B60000FD0A023FB181B688022134009D07B685C
:104B70009B6E002B1FD07B689B6E7A681000984755
:104B800019E0A423FB181B684022134014D0A02373
:104B9000FB181B68402213400ED07B68180000F001
:104BA000B2FBC04608E0C04606E0C04604E0C0468E
:104BB00002E0C04600E0C046BD462AB080BDC04607
:104BC000FFFEFFFFDFFEFFFF80B582B000AF786021
:104BD000C046BD4602B080BD80B582B000AF7860EF
:104BE000C046BD4602B080BD80B582B000AF7860DF
:104BF0000A00BB1C1A80C046BD4602B080BD000042
:104C000080B588B000AF78601E23FB1800221A70B0
:104C10007B689A687B681B691A437B685B691A43E7
:104C20007B68DB6913437B617B681B681B68954A63
:104C3000134019007B681B687A690A431A607B6815
:104C40001B685B68904A134019007B68DA687B68D0
:104C50001B680A435A607B689B697B617B681B6A9F
:104C60007A6913437B617B681B689B68874A1340A2
:104C700019007B681B687A690A439A607B681B6825
:104C8000834A934225D1834B1B6B03221340012B94
:104C90000FD004D3022B11D0032B05D013E01F2318
:104CA000FB1800221A7036E01F23FB1802221A702C
:104CB00031E01F23FB1804221A702CE01F23FB187D
:104CC00008221A7027E01F23FB1810221A70C04612
:104CD00021E07B681B68704A934204D11F23FB18B4
:104CE00000221A7017E07B681B686C4A934204D15B
:104CF0001F23FB1800221A700DE07B681B68684AAE
:104D0000934204D11F23FB1800221A7003E01F23D3
:104D1000FB1810221A707B68DA6980231B029A4202
:104D20005CD11F23FB181B78022B0DD002DC002B5B
:104D300005D015E0042B0AD0082B0DD010E0FEF7AB
:104D400081FF0300BB6112E0564BBB610FE0FEF731
:104D500007FF0300BB610AE080231B02BB6106E082
:104D60000023BB611E23FB1801221A70C046BB69D9
:104D7000002B00D179E0BB695A007B685B685B0857
:104D8000D2187B685B6819001000FBF7C5F90300B7
:104D90009BB23B613B690F2B1BD93B69424A934253
:104DA00017D83B699AB20E203B180F218A431A800C
:104DB0003B695B089BB20722134099B23B183A1833
:104DC00012880A431A807B681B683A181288DA60D6
:104DD0004BE01E23FB1801221A7046E01F23FB182C
:104DE0001B78022B0DD002DC002B05D015E0042B24
:104DF0000AD0082B0DD010E0FEF724FF0300BB61A2
:104E000012E0284BBB610FE0FEF7AAFE0300BB6176
:104E10000AE080231B02BB6106E00023BB611E2366
:104E2000FB1801221A70C046BB69002B1DD07B689D
:104E30005B685A08BB69D2187B685B681900100070
:104E4000FBF76AF903009BB23B613B690F2B08D962
:104E50003B69154A934204D87B681B683A69DA605B
:104E600003E01E23FB1801221A707B6800225A6699
:104E70007B6800229A661E23FB181B781800BD462B
:104E800008B080BDF369FFEFFFCFFFFFFFF4FFFF26
:104E9000003801400010024000440040004800403B
:104EA000004C004000127A00FFFF000080B582B085
:104EB00000AF78607B685B6A012213400BD07B688F
:104EC0001B685B684A4A134019007B689A6A7B68D2
:104ED0001B680A435A607B685B6A022213400BD04E
:104EE0007B681B685B68434A134019007B68DA6A79
:104EF0007B681B680A435A607B685B6A0422134024
:104F00000BD07B681B685B683B4A134019007B68C9
:104F10001A6B7B681B680A435A607B685B6A0822CD
:104F200013400BD07B681B685B68344A1340190040
:104F30007B685A6B7B681B680A435A607B685B6AB4
:104F4000102213400BD07B681B689B682C4A1340CF
:104F500019007B689A6B7B681B680A439A607B68C0
:104F60005B6A202213400BD07B681B689B68254A34
:104F7000134019007B68DA6B7B681B680A439A60F0
:104F80007B685B6A402213401DD07B681B685B68AE
:104F90001D4A134019007B681A6C7B681B680A4322
:104FA0005A607B681A6C80235B039A420BD17B6842
:104FB0001B685B68154A134019007B685A6C7B6854
:104FC0001B680A435A607B685B6A802213400BD0DF
:104FD0007B681B685B680E4A134019007B689A6CFB
:104FE0007B681B680A435A60C046BD4602B080BD5C
:104FF000FFFFFDFFFFFFFEFFFFFFFBFFFF7FFFFF48
:10500000FFEFFFFFFFDFFFFFFFFFEFFFFFFF9FFF50
:10501000FFFFF7FF80B586B002AF78607B68802223
:1050200000219950FCF762FE0300FB607B681B685F
:105030001B6808221340082B0DD1FA6880239903BE
:105040007868184B00931300002200F02DF8031E1F
:1050500001D0032322E07B681B681B6804221340F5
:10506000042B0DD1FA688023D90378680D4B009387
:105070001300002200F018F8031E01D003230DE0F6
:105080007B6820229A677B682022DA677B6800228F
:105090001A667B6874220021995400231800BD46CB
:1050A00004B080BDFFFFFF0180B594B000AFF86091
:1050B000B9603B60FB1D1A709BE0BB6D013300D1F2
:1050C00097E0FCF713FE02003B68D31ABA6D9A42D0
:1050D00002D3BB6D002B39D1EFF31083BB62BB6AE7
:1050E0007B640123FB62FB6A83F31088FB681B6807
:1050F0001A68FB681B6849490A401A607B6C3B636D
:105100003B6B83F31088EFF310837B637B6B3B6413
:105110000123BB63BB6B83F31088FB681B689A6831
:10512000FB681B6801218A439A603B6CFB63FB6B45
:1051300083F31088FB6820229A67FB682022DA67D5
:10514000FB68742200219954032363E0FB681B6809
:105150001B68042213404CD0FB681B68DA6980236B
:105160001B011A4080231B019A4242D1FB681B6835
:10517000802212011A62EFF310833B613B69FB64EA
:1051800001237B617B6983F31088FB681B681A68C5
:10519000FB681B6821490A401A60FB6CBB61BB6954
:1051A00083F31088EFF31083FB61FB69BB64012379
:1051B0003B623B6A83F31088FB681B689A68FB6854
:1051C0001B6801218A439A60BB6C7B627B6A83F314
:1051D0001088FB6820229A67FB682022DA67FB6848
:1051E000802220219950FB687422002199540323C6
:1051F00010E0FB681B68DB69BA681340BA68D31A11
:105200005A425341DBB21A00FB1D1B789A4200D16F
:1052100053E700231800BD4614B080BD5FFEFFFFBA
:1052200080B58EB000AF7860EFF310837B617B694F
:105230007B630123BB61BB6983F310887B681B68B8
:105240001A687B681B6823490A401A607B6BFB6104
:10525000FB6983F31088EFF310833B623B6A3B6387
:1052600001237B627B6A83F310887B681B689A68E2
:105270007B681B6801218A439A603B6BBB62BB6AF7
:1052800083F310887B681B6E012B16D1EFF310831C
:10529000BB60BB68FB620123FB60FB6883F3108883
:1052A0007B681B681A687B681B6810218A431A6038
:1052B000FB6A3B613B6983F310887B682022DA67D5
:1052C0007B6800221A667B6800225A66C046BD468B
:1052D0000EB080BDDFFEFFFF80B584B000AF786008
:1052E0007B685B6AFB60FB685A2200219952FB686D
:1052F000522200219952FB681800FFF76DFCC0464E
:10530000BD4604B080BD80B586B000AF7860EFF3D5
:105310001083BB60BB687B610123FB60FB6883F388
:1053200010887B681B681A687B681B6840218A4369
:105330001A607B693B613B6983F310887B6820229C
:105340009A677B6800229A667B681800FFF73CFC2E
:10535000C046BD4606B080BD70B500260C4D0D4C54
:10536000641BA410A64209D1002600F089F80A4D5A
:105370000A4C641BA410A64205D170BDB300EB58C3
:1053800098470136EEE7B300EB5898470136F2E74D
:105390006056000860560008605600086456000811
:1053A000931E10B50C00222B04D900231C000B7097
:1053B000200010BD0A2A09D1002807DA2D230B701E
:1053C00001214042611800F01FF8F1E70021F9E7E0
:1053D00010B5FFF7E5FF10BD30B50024A24201D1A2
:1053E000002005E0035D651C0C5DA34201D0181B85
:1053F00030BD2C00F2E703001218934200D1704731
:1054000019700133F9E70000F0B517008DB02522BF
:1054100006000D0002A8144900F028F802AABB1EDD
:1054200000240192222B05D92C70250028000DB0F4
:10543000F0BD140030003900FAF7F4FE84460198FC
:10544000621CAB18415C5E1E31706646002EF0D1C6
:105450001E702B005A1B9442E8DD1A78295D1970E2
:105460002A550133013CF5E738560008002310B5F2
:105470009A4200D110BDCC5CC4540133F8E700005F
:10548000F8B5C046F8BC08BC9E467047F8B5C046A3
:08549000F8BC08BC9E46704701
:105498000A2D2D2D2D2D2D2D20496E697469616CD5
:1054A800697A655F61667465725F72657365742099
:1054B800425553202D2D2D2D2D2D2D2D2D2D000018
:1054C8000A61646472657373203078000A4E6F74E1
:1054D80020646566696E65206F75747075742055F3
:1054E80041525420706F72742E000000434C5200D9
:1054F800305F5F0002030405060708090A0B0C0D5C
:105508000E0F10100102030405060708090A0B0C08
:105518000D0E0F1014090008C6070008EE07000852
:105528000008000834080008460800088408000835
:10553800EA080008EE0B00084A0A00089E0A00085C
:10554800F20A0008460B00089A0B0008580E0008DB
:105558008A0E00088A0E00088A0E00088A0E0008C3
:105568008A0E00088A0E00088A0E00088A0E0008B3
:105578008A0E00088A0E00088A0E00088A0E0008A3
:10558800620E00088A0E00088A0E0008F40D000852
:10559800FE0D0008080E0008120E00081C0E000878
:1055A800260E0008300E00083A0E0008440E0008C7
:1055B8004E0E00088A0E00088A0E00088A0E00089F
:1055C8008A0E00088A0E00088A0E00088A0E000853
:1055D8008A0E00088A0E00086C0E00088A0E000861
:1055E8008A0E00088A0E00088A0E00088A0E000833
:1055F8008A0E00088A0E00088A0E0008760E000837
:105608008A0E00088A0E00088A0E00088A0E000812
:105618008A0E0008800E000800000000000000004C
:105628000102030406070809000000000102030440
:105638003031323334353637383961626364656600
:105648006768696A6B6C6D6E6F707172737475766A
:085658007778797A0000000068
:04566000E900000855
:04566400C100000879
:0C56680000127A000400000001000000A5
:0400000508001BE5EF
:00000001FF
